{
	"data": {
		"bytecode": {
			"linkReferences": {},
			"object": "60806040523480156200001157600080fd5b506040516200399e3803806200399e83398181016040528101906200003791906200033a565b818181600090816200004a91906200060a565b5080600190816200005c91906200060a565b5050506200007f62000073620000d960201b60201c565b620000e160201b60201c565b3073ffffffffffffffffffffffffffffffffffffffff167f3454b57f2dca4f5a54e8358d096ac9d1a0d2dab98991ddb89ff9ea17462606178383604051620000c992919062000743565b60405180910390a250506200077e565b600033905090565b6000600760009054906101000a900473ffffffffffffffffffffffffffffffffffffffff16905081600760006101000a81548173ffffffffffffffffffffffffffffffffffffffff021916908373ffffffffffffffffffffffffffffffffffffffff1602179055508173ffffffffffffffffffffffffffffffffffffffff168173ffffffffffffffffffffffffffffffffffffffff167f8be0079c531659141344cd1fd0a4f28419497f9722a3daafe3b4186f6b6457e060405160405180910390a35050565b6000604051905090565b600080fd5b600080fd5b600080fd5b600080fd5b6000601f19601f8301169050919050565b7f4e487b7100000000000000000000000000000000000000000000000000000000600052604160045260246000fd5b6200021082620001c5565b810181811067ffffffffffffffff82111715620002325762000231620001d6565b5b80604052505050565b600062000247620001a7565b905062000255828262000205565b919050565b600067ffffffffffffffff821115620002785762000277620001d6565b5b6200028382620001c5565b9050602081019050919050565b60005b83811015620002b057808201518184015260208101905062000293565b60008484015250505050565b6000620002d3620002cd846200025a565b6200023b565b905082815260208101848484011115620002f257620002f1620001c0565b5b620002ff84828562000290565b509392505050565b600082601f8301126200031f576200031e620001bb565b5b815162000331848260208601620002bc565b91505092915050565b60008060408385031215620003545762000353620001b1565b5b600083015167ffffffffffffffff811115620003755762000374620001b6565b5b620003838582860162000307565b925050602083015167ffffffffffffffff811115620003a757620003a6620001b6565b5b620003b58582860162000307565b9150509250929050565b600081519050919050565b7f4e487b7100000000000000000000000000000000000000000000000000000000600052602260045260246000fd5b600060028204905060018216806200041257607f821691505b602082108103620004285762000427620003ca565b5b50919050565b60008190508160005260206000209050919050565b60006020601f8301049050919050565b600082821b905092915050565b600060088302620004927fffffffffffffffffffffffffffffffffffffffffffffffffffffffffffffffff8262000453565b6200049e868362000453565b95508019841693508086168417925050509392505050565b6000819050919050565b6000819050919050565b6000620004eb620004e5620004df84620004b6565b620004c0565b620004b6565b9050919050565b6000819050919050565b6200050783620004ca565b6200051f6200051682620004f2565b84845462000460565b825550505050565b600090565b6200053662000527565b62000543818484620004fc565b505050565b5b818110156200056b576200055f6000826200052c565b60018101905062000549565b5050565b601f821115620005ba5762000584816200042e565b6200058f8462000443565b810160208510156200059f578190505b620005b7620005ae8562000443565b83018262000548565b50505b505050565b600082821c905092915050565b6000620005df60001984600802620005bf565b1980831691505092915050565b6000620005fa8383620005cc565b9150826002028217905092915050565b6200061582620003bf565b67ffffffffffffffff811115620006315762000630620001d6565b5b6200063d8254620003f9565b6200064a8282856200056f565b600060209050601f8311600181146200068257600084156200066d578287015190505b620006798582620005ec565b865550620006e9565b601f19841662000692866200042e565b60005b82811015620006bc5784890151825560018201915060208501945060208101905062000695565b86831015620006dc5784890151620006d8601f891682620005cc565b8355505b6001600288020188555050505b505050505050565b600082825260208201905092915050565b60006200070f82620003bf565b6200071b8185620006f1565b93506200072d81856020860162000290565b6200073881620001c5565b840191505092915050565b600060408201905081810360008301526200075f818562000702565b9050818103602083015262000775818462000702565b90509392505050565b613210806200078e6000396000f3fe608060405234801561001057600080fd5b506004361061010b5760003560e01c8063715018a6116100a2578063b88d4fde11610071578063b88d4fde146102a4578063c87b56dd146102c0578063d3fc9864146102f0578063e985e9c51461030c578063f2fde38b1461033c5761010b565b8063715018a6146102425780638da5cb5b1461024c57806395d89b411461026a578063a22cb465146102885761010b565b806323b872dd116100de57806323b872dd146101aa57806342842e0e146101c65780636352211e146101e257806370a08231146102125761010b565b806301ffc9a71461011057806306fdde0314610140578063081812fc1461015e578063095ea7b31461018e575b600080fd5b61012a60048036038101906101259190611be0565b610358565b6040516101379190611c28565b60405180910390f35b61014861043a565b6040516101559190611cd3565b60405180910390f35b61017860048036038101906101739190611d2b565b6104cc565b6040516101859190611d99565b60405180910390f35b6101a860048036038101906101a39190611de0565b610551565b005b6101c460048036038101906101bf9190611e20565b610668565b005b6101e060048036038101906101db9190611e20565b6106c8565b005b6101fc60048036038101906101f79190611d2b565b6106e8565b6040516102099190611d99565b60405180910390f35b61022c60048036038101906102279190611e73565b610799565b6040516102399190611eaf565b60405180910390f35b61024a610850565b005b6102546108d8565b6040516102619190611d99565b60405180910390f35b610272610902565b60405161027f9190611cd3565b60405180910390f35b6102a2600480360381019061029d9190611ef6565b610994565b005b6102be60048036038101906102b9919061206b565b6109aa565b005b6102da60048036038101906102d59190611d2b565b610a0c565b6040516102e79190611cd3565b60405180910390f35b61030a6004803603810190610305919061218f565b610a1e565b005b610326600480360381019061032191906121fe565b610a9e565b6040516103339190611c28565b60405180910390f35b61035660048036038101906103519190611e73565b610b32565b005b60007f80ac58cd000000000000000000000000000000000000000000000000000000007bffffffffffffffffffffffffffffffffffffffffffffffffffffffff1916827bffffffffffffffffffffffffffffffffffffffffffffffffffffffff1916148061042357507f5b5e139f000000000000000000000000000000000000000000000000000000007bffffffffffffffffffffffffffffffffffffffffffffffffffffffff1916827bffffffffffffffffffffffffffffffffffffffffffffffffffffffff1916145b80610433575061043282610c29565b5b9050919050565b6060600080546104499061226d565b80601f01602080910402602001604051908101604052809291908181526020018280546104759061226d565b80156104c25780601f10610497576101008083540402835291602001916104c2565b820191906000526020600020905b8154815290600101906020018083116104a557829003601f168201915b5050505050905090565b60006104d782610c93565b610516576040517f08c379a000000000000000000000000000000000000000000000000000000000815260040161050d90612310565b60405180910390fd5b6004600083815260200190815260200160002060009054906101000a900473ffffffffffffffffffffffffffffffffffffffff169050919050565b600061055c826106e8565b90508073ffffffffffffffffffffffffffffffffffffffff168373ffffffffffffffffffffffffffffffffffffffff16036105cc576040517f08c379a00000000000000000000000000000000000000000000000000000000081526004016105c3906123a2565b60405180910390fd5b8073ffffffffffffffffffffffffffffffffffffffff166105eb610cff565b73ffffffffffffffffffffffffffffffffffffffff16148061061a575061061981610614610cff565b610a9e565b5b610659576040517f08c379a000000000000000000000000000000000000000000000000000000000815260040161065090612434565b60405180910390fd5b6106638383610d07565b505050565b610679610673610cff565b82610dc0565b6106b8576040517f08c379a00000000000000000000000000000000000000000000000000000000081526004016106af906124c6565b60405180910390fd5b6106c3838383610e9e565b505050565b6106e3838383604051806020016040528060008152506109aa565b505050565b6000806002600084815260200190815260200160002060009054906101000a900473ffffffffffffffffffffffffffffffffffffffff169050600073ffffffffffffffffffffffffffffffffffffffff168173ffffffffffffffffffffffffffffffffffffffff1603610790576040517f08c379a000000000000000000000000000000000000000000000000000000000815260040161078790612558565b60405180910390fd5b80915050919050565b60008073ffffffffffffffffffffffffffffffffffffffff168273ffffffffffffffffffffffffffffffffffffffff1603610809576040517f08c379a0000000000000000000000000000000000000000000000000000000008152600401610800906125ea565b60405180910390fd5b600360008373ffffffffffffffffffffffffffffffffffffffff1673ffffffffffffffffffffffffffffffffffffffff168152602001908152602001600020549050919050565b610858610cff565b73ffffffffffffffffffffffffffffffffffffffff166108766108d8565b73ffffffffffffffffffffffffffffffffffffffff16146108cc576040517f08c379a00000000000000000000000000000000000000000000000000000000081526004016108c390612656565b60405180910390fd5b6108d66000611104565b565b6000600760009054906101000a900473ffffffffffffffffffffffffffffffffffffffff16905090565b6060600180546109119061226d565b80601f016020809104026020016040519081016040528092919081815260200182805461093d9061226d565b801561098a5780601f1061095f5761010080835404028352916020019161098a565b820191906000526020600020905b81548152906001019060200180831161096d57829003601f168201915b5050505050905090565b6109a661099f610cff565b83836111ca565b5050565b6109bb6109b5610cff565b83610dc0565b6109fa576040517f08c379a00000000000000000000000000000000000000000000000000000000081526004016109f1906124c6565b60405180910390fd5b610a0684848484611336565b50505050565b6060610a1782611392565b9050919050565b610a2883836114e3565b610a328282611501565b8273ffffffffffffffffffffffffffffffffffffffff163073ffffffffffffffffffffffffffffffffffffffff167fc9fee7cd4889f66f10ff8117316524260a5242e88e25e0656dfb3f4196a219178484604051610a91929190612676565b60405180910390a3505050565b6000600560008473ffffffffffffffffffffffffffffffffffffffff1673ffffffffffffffffffffffffffffffffffffffff16815260200190815260200160002060008373ffffffffffffffffffffffffffffffffffffffff1673ffffffffffffffffffffffffffffffffffffffff16815260200190815260200160002060009054906101000a900460ff16905092915050565b610b3a610cff565b73ffffffffffffffffffffffffffffffffffffffff16610b586108d8565b73ffffffffffffffffffffffffffffffffffffffff1614610bae576040517f08c379a0000000000000000000000000000000000000000000000000000000008152600401610ba590612656565b60405180910390fd5b600073ffffffffffffffffffffffffffffffffffffffff168173ffffffffffffffffffffffffffffffffffffffff1603610c1d576040517f08c379a0000000000000000000000000000000000000000000000000000000008152600401610c1490612718565b60405180910390fd5b610c2681611104565b50565b60007f01ffc9a7000000000000000000000000000000000000000000000000000000007bffffffffffffffffffffffffffffffffffffffffffffffffffffffff1916827bffffffffffffffffffffffffffffffffffffffffffffffffffffffff1916149050919050565b60008073ffffffffffffffffffffffffffffffffffffffff166002600084815260200190815260200160002060009054906101000a900473ffffffffffffffffffffffffffffffffffffffff1673ffffffffffffffffffffffffffffffffffffffff1614159050919050565b600033905090565b816004600083815260200190815260200160002060006101000a81548173ffffffffffffffffffffffffffffffffffffffff021916908373ffffffffffffffffffffffffffffffffffffffff160217905550808273ffffffffffffffffffffffffffffffffffffffff16610d7a836106e8565b73ffffffffffffffffffffffffffffffffffffffff167f8c5be1e5ebec7d5bd14f71427d1e84f3dd0314c0f7b2291e5b200ac8c7c3b92560405160405180910390a45050565b6000610dcb82610c93565b610e0a576040517f08c379a0000000000000000000000000000000000000000000000000000000008152600401610e01906127aa565b60405180910390fd5b6000610e15836106e8565b90508073ffffffffffffffffffffffffffffffffffffffff168473ffffffffffffffffffffffffffffffffffffffff161480610e8457508373ffffffffffffffffffffffffffffffffffffffff16610e6c846104cc565b73ffffffffffffffffffffffffffffffffffffffff16145b80610e955750610e948185610a9e565b5b91505092915050565b8273ffffffffffffffffffffffffffffffffffffffff16610ebe826106e8565b73ffffffffffffffffffffffffffffffffffffffff1614610f14576040517f08c379a0000000000000000000000000000000000000000000000000000000008152600401610f0b9061283c565b60405180910390fd5b600073ffffffffffffffffffffffffffffffffffffffff168273ffffffffffffffffffffffffffffffffffffffff1603610f83576040517f08c379a0000000000000000000000000000000000000000000000000000000008152600401610f7a906128ce565b60405180910390fd5b610f8e83838361156e565b610f99600082610d07565b6001600360008573ffffffffffffffffffffffffffffffffffffffff1673ffffffffffffffffffffffffffffffffffffffff1681526020019081526020016000206000828254610fe9919061291d565b925050819055506001600360008473ffffffffffffffffffffffffffffffffffffffff1673ffffffffffffffffffffffffffffffffffffffff16815260200190815260200160002060008282546110409190612951565b92505081905550816002600083815260200190815260200160002060006101000a81548173ffffffffffffffffffffffffffffffffffffffff021916908373ffffffffffffffffffffffffffffffffffffffff160217905550808273ffffffffffffffffffffffffffffffffffffffff168473ffffffffffffffffffffffffffffffffffffffff167fddf252ad1be2c89b69c2b068fc378daa952ba7f163c4a11628f55a4df523b3ef60405160405180910390a46110ff838383611573565b505050565b6000600760009054906101000a900473ffffffffffffffffffffffffffffffffffffffff16905081600760006101000a81548173ffffffffffffffffffffffffffffffffffffffff021916908373ffffffffffffffffffffffffffffffffffffffff1602179055508173ffffffffffffffffffffffffffffffffffffffff168173ffffffffffffffffffffffffffffffffffffffff167f8be0079c531659141344cd1fd0a4f28419497f9722a3daafe3b4186f6b6457e060405160405180910390a35050565b8173ffffffffffffffffffffffffffffffffffffffff168373ffffffffffffffffffffffffffffffffffffffff1603611238576040517f08c379a000000000000000000000000000000000000000000000000000000000815260040161122f906129d1565b60405180910390fd5b80600560008573ffffffffffffffffffffffffffffffffffffffff1673ffffffffffffffffffffffffffffffffffffffff16815260200190815260200160002060008473ffffffffffffffffffffffffffffffffffffffff1673ffffffffffffffffffffffffffffffffffffffff16815260200190815260200160002060006101000a81548160ff0219169083151502179055508173ffffffffffffffffffffffffffffffffffffffff168373ffffffffffffffffffffffffffffffffffffffff167f17307eab39ab6107e8899845ad3d59bd9653f200f220920489ca2b5937696c31836040516113299190611c28565b60405180910390a3505050565b611341848484610e9e565b61134d84848484611578565b61138c576040517f08c379a000000000000000000000000000000000000000000000000000000000815260040161138390612a63565b60405180910390fd5b50505050565b606061139d82610c93565b6113dc576040517f08c379a00000000000000000000000000000000000000000000000000000000081526004016113d390612af5565b60405180910390fd5b60006006600084815260200190815260200160002080546113fc9061226d565b80601f01602080910402602001604051908101604052809291908181526020018280546114289061226d565b80156114755780601f1061144a57610100808354040283529160200191611475565b820191906000526020600020905b81548152906001019060200180831161145857829003601f168201915b5050505050905060006114866116ff565b9050600081510361149b5781925050506114de565b6000825111156114d05780826040516020016114b8929190612b51565b604051602081830303815290604052925050506114de565b6114d984611716565b925050505b919050565b6114fd8282604051806020016040528060008152506117bd565b5050565b61150a82610c93565b611549576040517f08c379a000000000000000000000000000000000000000000000000000000000815260040161154090612be7565b60405180910390fd5b806006600084815260200190815260200160002090816115699190612db3565b505050565b505050565b505050565b60006115998473ffffffffffffffffffffffffffffffffffffffff16611818565b156116f2578373ffffffffffffffffffffffffffffffffffffffff1663150b7a026115c2610cff565b8786866040518563ffffffff1660e01b81526004016115e49493929190612eda565b6020604051808303816000875af192505050801561162057506040513d601f19601f8201168201806040525081019061161d9190612f3b565b60015b6116a2573d8060008114611650576040519150601f19603f3d011682016040523d82523d6000602084013e611655565b606091505b50600081510361169a576040517f08c379a000000000000000000000000000000000000000000000000000000000815260040161169190612a63565b60405180910390fd5b805181602001fd5b63150b7a0260e01b7bffffffffffffffffffffffffffffffffffffffffffffffffffffffff1916817bffffffffffffffffffffffffffffffffffffffffffffffffffffffff1916149150506116f7565b600190505b949350505050565b606060405180602001604052806000815250905090565b606061172182610c93565b611760576040517f08c379a000000000000000000000000000000000000000000000000000000000815260040161175790612fda565b60405180910390fd5b600061176a6116ff565b9050600081511161178a57604051806020016040528060008152506117b5565b806117948461183b565b6040516020016117a5929190612b51565b6040516020818303038152906040525b915050919050565b6117c7838361199b565b6117d46000848484611578565b611813576040517f08c379a000000000000000000000000000000000000000000000000000000000815260040161180a90612a63565b60405180910390fd5b505050565b6000808273ffffffffffffffffffffffffffffffffffffffff163b119050919050565b606060008203611882576040518060400160405280600181526020017f30000000000000000000000000000000000000000000000000000000000000008152509050611996565b600082905060005b600082146118b457808061189d90612ffa565b915050600a826118ad9190613071565b915061188a565b60008167ffffffffffffffff8111156118d0576118cf611f40565b5b6040519080825280601f01601f1916602001820160405280156119025781602001600182028036833780820191505090505b5090505b6000851461198f5760018261191b919061291d565b9150600a8561192a91906130a2565b60306119369190612951565b60f81b81838151811061194c5761194b6130d3565b5b60200101907effffffffffffffffffffffffffffffffffffffffffffffffffffffffffffff1916908160001a905350600a856119889190613071565b9450611906565b8093505050505b919050565b600073ffffffffffffffffffffffffffffffffffffffff168273ffffffffffffffffffffffffffffffffffffffff1603611a0a576040517f08c379a0000000000000000000000000000000000000000000000000000000008152600401611a019061314e565b60405180910390fd5b611a1381610c93565b15611a53576040517f08c379a0000000000000000000000000000000000000000000000000000000008152600401611a4a906131ba565b60405180910390fd5b611a5f6000838361156e565b6001600360008473ffffffffffffffffffffffffffffffffffffffff1673ffffffffffffffffffffffffffffffffffffffff1681526020019081526020016000206000828254611aaf9190612951565b92505081905550816002600083815260200190815260200160002060006101000a81548173ffffffffffffffffffffffffffffffffffffffff021916908373ffffffffffffffffffffffffffffffffffffffff160217905550808273ffffffffffffffffffffffffffffffffffffffff16600073ffffffffffffffffffffffffffffffffffffffff167fddf252ad1be2c89b69c2b068fc378daa952ba7f163c4a11628f55a4df523b3ef60405160405180910390a4611b7060008383611573565b5050565b6000604051905090565b600080fd5b600080fd5b60007fffffffff0000000000000000000000000000000000000000000000000000000082169050919050565b611bbd81611b88565b8114611bc857600080fd5b50565b600081359050611bda81611bb4565b92915050565b600060208284031215611bf657611bf5611b7e565b5b6000611c0484828501611bcb565b91505092915050565b60008115159050919050565b611c2281611c0d565b82525050565b6000602082019050611c3d6000830184611c19565b92915050565b600081519050919050565b600082825260208201905092915050565b60005b83811015611c7d578082015181840152602081019050611c62565b60008484015250505050565b6000601f19601f8301169050919050565b6000611ca582611c43565b611caf8185611c4e565b9350611cbf818560208601611c5f565b611cc881611c89565b840191505092915050565b60006020820190508181036000830152611ced8184611c9a565b905092915050565b6000819050919050565b611d0881611cf5565b8114611d1357600080fd5b50565b600081359050611d2581611cff565b92915050565b600060208284031215611d4157611d40611b7e565b5b6000611d4f84828501611d16565b91505092915050565b600073ffffffffffffffffffffffffffffffffffffffff82169050919050565b6000611d8382611d58565b9050919050565b611d9381611d78565b82525050565b6000602082019050611dae6000830184611d8a565b92915050565b611dbd81611d78565b8114611dc857600080fd5b50565b600081359050611dda81611db4565b92915050565b60008060408385031215611df757611df6611b7e565b5b6000611e0585828601611dcb565b9250506020611e1685828601611d16565b9150509250929050565b600080600060608486031215611e3957611e38611b7e565b5b6000611e4786828701611dcb565b9350506020611e5886828701611dcb565b9250506040611e6986828701611d16565b9150509250925092565b600060208284031215611e8957611e88611b7e565b5b6000611e9784828501611dcb565b91505092915050565b611ea981611cf5565b82525050565b6000602082019050611ec46000830184611ea0565b92915050565b611ed381611c0d565b8114611ede57600080fd5b50565b600081359050611ef081611eca565b92915050565b60008060408385031215611f0d57611f0c611b7e565b5b6000611f1b85828601611dcb565b9250506020611f2c85828601611ee1565b9150509250929050565b600080fd5b600080fd5b7f4e487b7100000000000000000000000000000000000000000000000000000000600052604160045260246000fd5b611f7882611c89565b810181811067ffffffffffffffff82111715611f9757611f96611f40565b5b80604052505050565b6000611faa611b74565b9050611fb68282611f6f565b919050565b600067ffffffffffffffff821115611fd657611fd5611f40565b5b611fdf82611c89565b9050602081019050919050565b82818337600083830152505050565b600061200e61200984611fbb565b611fa0565b90508281526020810184848401111561202a57612029611f3b565b5b612035848285611fec565b509392505050565b600082601f83011261205257612051611f36565b5b8135612062848260208601611ffb565b91505092915050565b6000806000806080858703121561208557612084611b7e565b5b600061209387828801611dcb565b94505060206120a487828801611dcb565b93505060406120b587828801611d16565b925050606085013567ffffffffffffffff8111156120d6576120d5611b83565b5b6120e28782880161203d565b91505092959194509250565b600067ffffffffffffffff82111561210957612108611f40565b5b61211282611c89565b9050602081019050919050565b600061213261212d846120ee565b611fa0565b90508281526020810184848401111561214e5761214d611f3b565b5b612159848285611fec565b509392505050565b600082601f83011261217657612175611f36565b5b813561218684826020860161211f565b91505092915050565b6000806000606084860312156121a8576121a7611b7e565b5b60006121b686828701611dcb565b93505060206121c786828701611d16565b925050604084013567ffffffffffffffff8111156121e8576121e7611b83565b5b6121f486828701612161565b9150509250925092565b6000806040838503121561221557612214611b7e565b5b600061222385828601611dcb565b925050602061223485828601611dcb565b9150509250929050565b7f4e487b7100000000000000000000000000000000000000000000000000000000600052602260045260246000fd5b6000600282049050600182168061228557607f821691505b6020821081036122985761229761223e565b5b50919050565b7f4552433732313a20617070726f76656420717565727920666f72206e6f6e657860008201527f697374656e7420746f6b656e0000000000000000000000000000000000000000602082015250565b60006122fa602c83611c4e565b91506123058261229e565b604082019050919050565b60006020820190508181036000830152612329816122ed565b9050919050565b7f4552433732313a20617070726f76616c20746f2063757272656e74206f776e6560008201527f7200000000000000000000000000000000000000000000000000000000000000602082015250565b600061238c602183611c4e565b915061239782612330565b604082019050919050565b600060208201905081810360008301526123bb8161237f565b9050919050565b7f4552433732313a20617070726f76652063616c6c6572206973206e6f74206f7760008201527f6e6572206e6f7220617070726f76656420666f7220616c6c0000000000000000602082015250565b600061241e603883611c4e565b9150612429826123c2565b604082019050919050565b6000602082019050818103600083015261244d81612411565b9050919050565b7f4552433732313a207472616e736665722063616c6c6572206973206e6f74206f60008201527f776e6572206e6f7220617070726f766564000000000000000000000000000000602082015250565b60006124b0603183611c4e565b91506124bb82612454565b604082019050919050565b600060208201905081810360008301526124df816124a3565b9050919050565b7f4552433732313a206f776e657220717565727920666f72206e6f6e657869737460008201527f656e7420746f6b656e0000000000000000000000000000000000000000000000602082015250565b6000612542602983611c4e565b915061254d826124e6565b604082019050919050565b6000602082019050818103600083015261257181612535565b9050919050565b7f4552433732313a2062616c616e636520717565727920666f7220746865207a6560008201527f726f206164647265737300000000000000000000000000000000000000000000602082015250565b60006125d4602a83611c4e565b91506125df82612578565b604082019050919050565b60006020820190508181036000830152612603816125c7565b9050919050565b7f4f776e61626c653a2063616c6c6572206973206e6f7420746865206f776e6572600082015250565b6000612640602083611c4e565b915061264b8261260a565b602082019050919050565b6000602082019050818103600083015261266f81612633565b9050919050565b600060408201905061268b6000830185611ea0565b818103602083015261269d8184611c9a565b90509392505050565b7f4f776e61626c653a206e6577206f776e657220697320746865207a65726f206160008201527f6464726573730000000000000000000000000000000000000000000000000000602082015250565b6000612702602683611c4e565b915061270d826126a6565b604082019050919050565b60006020820190508181036000830152612731816126f5565b9050919050565b7f4552433732313a206f70657261746f7220717565727920666f72206e6f6e657860008201527f697374656e7420746f6b656e0000000000000000000000000000000000000000602082015250565b6000612794602c83611c4e565b915061279f82612738565b604082019050919050565b600060208201905081810360008301526127c381612787565b9050919050565b7f4552433732313a207472616e736665722066726f6d20696e636f72726563742060008201527f6f776e6572000000000000000000000000000000000000000000000000000000602082015250565b6000612826602583611c4e565b9150612831826127ca565b604082019050919050565b6000602082019050818103600083015261285581612819565b9050919050565b7f4552433732313a207472616e7366657220746f20746865207a65726f2061646460008201527f7265737300000000000000000000000000000000000000000000000000000000602082015250565b60006128b8602483611c4e565b91506128c38261285c565b604082019050919050565b600060208201905081810360008301526128e7816128ab565b9050919050565b7f4e487b7100000000000000000000000000000000000000000000000000000000600052601160045260246000fd5b600061292882611cf5565b915061293383611cf5565b925082820390508181111561294b5761294a6128ee565b5b92915050565b600061295c82611cf5565b915061296783611cf5565b925082820190508082111561297f5761297e6128ee565b5b92915050565b7f4552433732313a20617070726f766520746f2063616c6c657200000000000000600082015250565b60006129bb601983611c4e565b91506129c682612985565b602082019050919050565b600060208201905081810360008301526129ea816129ae565b9050919050565b7f4552433732313a207472616e7366657220746f206e6f6e20455243373231526560008201527f63656976657220696d706c656d656e7465720000000000000000000000000000602082015250565b6000612a4d603283611c4e565b9150612a58826129f1565b604082019050919050565b60006020820190508181036000830152612a7c81612a40565b9050919050565b7f45524337323155524953746f726167653a2055524920717565727920666f722060008201527f6e6f6e6578697374656e7420746f6b656e000000000000000000000000000000602082015250565b6000612adf603183611c4e565b9150612aea82612a83565b604082019050919050565b60006020820190508181036000830152612b0e81612ad2565b9050919050565b600081905092915050565b6000612b2b82611c43565b612b358185612b15565b9350612b45818560208601611c5f565b80840191505092915050565b6000612b5d8285612b20565b9150612b698284612b20565b91508190509392505050565b7f45524337323155524953746f726167653a2055524920736574206f66206e6f6e60008201527f6578697374656e7420746f6b656e000000000000000000000000000000000000602082015250565b6000612bd1602e83611c4e565b9150612bdc82612b75565b604082019050919050565b60006020820190508181036000830152612c0081612bc4565b9050919050565b60008190508160005260206000209050919050565b60006020601f8301049050919050565b600082821b905092915050565b600060088302612c697fffffffffffffffffffffffffffffffffffffffffffffffffffffffffffffffff82612c2c565b612c738683612c2c565b95508019841693508086168417925050509392505050565b6000819050919050565b6000612cb0612cab612ca684611cf5565b612c8b565b611cf5565b9050919050565b6000819050919050565b612cca83612c95565b612cde612cd682612cb7565b848454612c39565b825550505050565b600090565b612cf3612ce6565b612cfe818484612cc1565b505050565b5b81811015612d2257612d17600082612ceb565b600181019050612d04565b5050565b601f821115612d6757612d3881612c07565b612d4184612c1c565b81016020851015612d50578190505b612d64612d5c85612c1c565b830182612d03565b50505b505050565b600082821c905092915050565b6000612d8a60001984600802612d6c565b1980831691505092915050565b6000612da38383612d79565b9150826002028217905092915050565b612dbc82611c43565b67ffffffffffffffff811115612dd557612dd4611f40565b5b612ddf825461226d565b612dea828285612d26565b600060209050601f831160018114612e1d5760008415612e0b578287015190505b612e158582612d97565b865550612e7d565b601f198416612e2b86612c07565b60005b82811015612e5357848901518255600182019150602085019450602081019050612e2e565b86831015612e705784890151612e6c601f891682612d79565b8355505b6001600288020188555050505b505050505050565b600081519050919050565b600082825260208201905092915050565b6000612eac82612e85565b612eb68185612e90565b9350612ec6818560208601611c5f565b612ecf81611c89565b840191505092915050565b6000608082019050612eef6000830187611d8a565b612efc6020830186611d8a565b612f096040830185611ea0565b8181036060830152612f1b8184612ea1565b905095945050505050565b600081519050612f3581611bb4565b92915050565b600060208284031215612f5157612f50611b7e565b5b6000612f5f84828501612f26565b91505092915050565b7f4552433732314d657461646174613a2055524920717565727920666f72206e6f60008201527f6e6578697374656e7420746f6b656e0000000000000000000000000000000000602082015250565b6000612fc4602f83611c4e565b9150612fcf82612f68565b604082019050919050565b60006020820190508181036000830152612ff381612fb7565b9050919050565b600061300582611cf5565b91507fffffffffffffffffffffffffffffffffffffffffffffffffffffffffffffffff8203613037576130366128ee565b5b600182019050919050565b7f4e487b7100000000000000000000000000000000000000000000000000000000600052601260045260246000fd5b600061307c82611cf5565b915061308783611cf5565b92508261309757613096613042565b5b828204905092915050565b60006130ad82611cf5565b91506130b883611cf5565b9250826130c8576130c7613042565b5b828206905092915050565b7f4e487b7100000000000000000000000000000000000000000000000000000000600052603260045260246000fd5b7f4552433732313a206d696e7420746f20746865207a65726f2061646472657373600082015250565b6000613138602083611c4e565b915061314382613102565b602082019050919050565b600060208201905081810360008301526131678161312b565b9050919050565b7f4552433732313a20746f6b656e20616c7265616479206d696e74656400000000600082015250565b60006131a4601c83611c4e565b91506131af8261316e565b602082019050919050565b600060208201905081810360008301526131d381613197565b905091905056fea26469706673582212201d3f2ef3e5dc4977a5d98f4cecb4fe9276873f99af4ebd4cc4c8b16c0c3ea00c64736f6c63430008110033",
			"opcodes": "PUSH1 0x80 PUSH1 0x40 MSTORE CALLVALUE DUP1 ISZERO PUSH3 0x11 JUMPI PUSH1 0x0 DUP1 REVERT JUMPDEST POP PUSH1 0x40 MLOAD PUSH3 0x399E CODESIZE SUB DUP1 PUSH3 0x399E DUP4 CODECOPY DUP2 DUP2 ADD PUSH1 0x40 MSTORE DUP2 ADD SWAP1 PUSH3 0x37 SWAP2 SWAP1 PUSH3 0x33A JUMP JUMPDEST DUP2 DUP2 DUP2 PUSH1 0x0 SWAP1 DUP2 PUSH3 0x4A SWAP2 SWAP1 PUSH3 0x60A JUMP JUMPDEST POP DUP1 PUSH1 0x1 SWAP1 DUP2 PUSH3 0x5C SWAP2 SWAP1 PUSH3 0x60A JUMP JUMPDEST POP POP POP PUSH3 0x7F PUSH3 0x73 PUSH3 0xD9 PUSH1 0x20 SHL PUSH1 0x20 SHR JUMP JUMPDEST PUSH3 0xE1 PUSH1 0x20 SHL PUSH1 0x20 SHR JUMP JUMPDEST ADDRESS PUSH20 0xFFFFFFFFFFFFFFFFFFFFFFFFFFFFFFFFFFFFFFFF AND PUSH32 0x3454B57F2DCA4F5A54E8358D096AC9D1A0D2DAB98991DDB89FF9EA1746260617 DUP4 DUP4 PUSH1 0x40 MLOAD PUSH3 0xC9 SWAP3 SWAP2 SWAP1 PUSH3 0x743 JUMP JUMPDEST PUSH1 0x40 MLOAD DUP1 SWAP2 SUB SWAP1 LOG2 POP POP PUSH3 0x77E JUMP JUMPDEST PUSH1 0x0 CALLER SWAP1 POP SWAP1 JUMP JUMPDEST PUSH1 0x0 PUSH1 0x7 PUSH1 0x0 SWAP1 SLOAD SWAP1 PUSH2 0x100 EXP SWAP1 DIV PUSH20 0xFFFFFFFFFFFFFFFFFFFFFFFFFFFFFFFFFFFFFFFF AND SWAP1 POP DUP2 PUSH1 0x7 PUSH1 0x0 PUSH2 0x100 EXP DUP2 SLOAD DUP2 PUSH20 0xFFFFFFFFFFFFFFFFFFFFFFFFFFFFFFFFFFFFFFFF MUL NOT AND SWAP1 DUP4 PUSH20 0xFFFFFFFFFFFFFFFFFFFFFFFFFFFFFFFFFFFFFFFF AND MUL OR SWAP1 SSTORE POP DUP2 PUSH20 0xFFFFFFFFFFFFFFFFFFFFFFFFFFFFFFFFFFFFFFFF AND DUP2 PUSH20 0xFFFFFFFFFFFFFFFFFFFFFFFFFFFFFFFFFFFFFFFF AND PUSH32 0x8BE0079C531659141344CD1FD0A4F28419497F9722A3DAAFE3B4186F6B6457E0 PUSH1 0x40 MLOAD PUSH1 0x40 MLOAD DUP1 SWAP2 SUB SWAP1 LOG3 POP POP JUMP JUMPDEST PUSH1 0x0 PUSH1 0x40 MLOAD SWAP1 POP SWAP1 JUMP JUMPDEST PUSH1 0x0 DUP1 REVERT JUMPDEST PUSH1 0x0 DUP1 REVERT JUMPDEST PUSH1 0x0 DUP1 REVERT JUMPDEST PUSH1 0x0 DUP1 REVERT JUMPDEST PUSH1 0x0 PUSH1 0x1F NOT PUSH1 0x1F DUP4 ADD AND SWAP1 POP SWAP2 SWAP1 POP JUMP JUMPDEST PUSH32 0x4E487B7100000000000000000000000000000000000000000000000000000000 PUSH1 0x0 MSTORE PUSH1 0x41 PUSH1 0x4 MSTORE PUSH1 0x24 PUSH1 0x0 REVERT JUMPDEST PUSH3 0x210 DUP3 PUSH3 0x1C5 JUMP JUMPDEST DUP2 ADD DUP2 DUP2 LT PUSH8 0xFFFFFFFFFFFFFFFF DUP3 GT OR ISZERO PUSH3 0x232 JUMPI PUSH3 0x231 PUSH3 0x1D6 JUMP JUMPDEST JUMPDEST DUP1 PUSH1 0x40 MSTORE POP POP POP JUMP JUMPDEST PUSH1 0x0 PUSH3 0x247 PUSH3 0x1A7 JUMP JUMPDEST SWAP1 POP PUSH3 0x255 DUP3 DUP3 PUSH3 0x205 JUMP JUMPDEST SWAP2 SWAP1 POP JUMP JUMPDEST PUSH1 0x0 PUSH8 0xFFFFFFFFFFFFFFFF DUP3 GT ISZERO PUSH3 0x278 JUMPI PUSH3 0x277 PUSH3 0x1D6 JUMP JUMPDEST JUMPDEST PUSH3 0x283 DUP3 PUSH3 0x1C5 JUMP JUMPDEST SWAP1 POP PUSH1 0x20 DUP2 ADD SWAP1 POP SWAP2 SWAP1 POP JUMP JUMPDEST PUSH1 0x0 JUMPDEST DUP4 DUP2 LT ISZERO PUSH3 0x2B0 JUMPI DUP1 DUP3 ADD MLOAD DUP2 DUP5 ADD MSTORE PUSH1 0x20 DUP2 ADD SWAP1 POP PUSH3 0x293 JUMP JUMPDEST PUSH1 0x0 DUP5 DUP5 ADD MSTORE POP POP POP POP JUMP JUMPDEST PUSH1 0x0 PUSH3 0x2D3 PUSH3 0x2CD DUP5 PUSH3 0x25A JUMP JUMPDEST PUSH3 0x23B JUMP JUMPDEST SWAP1 POP DUP3 DUP2 MSTORE PUSH1 0x20 DUP2 ADD DUP5 DUP5 DUP5 ADD GT ISZERO PUSH3 0x2F2 JUMPI PUSH3 0x2F1 PUSH3 0x1C0 JUMP JUMPDEST JUMPDEST PUSH3 0x2FF DUP5 DUP3 DUP6 PUSH3 0x290 JUMP JUMPDEST POP SWAP4 SWAP3 POP POP POP JUMP JUMPDEST PUSH1 0x0 DUP3 PUSH1 0x1F DUP4 ADD SLT PUSH3 0x31F JUMPI PUSH3 0x31E PUSH3 0x1BB JUMP JUMPDEST JUMPDEST DUP2 MLOAD PUSH3 0x331 DUP5 DUP3 PUSH1 0x20 DUP7 ADD PUSH3 0x2BC JUMP JUMPDEST SWAP2 POP POP SWAP3 SWAP2 POP POP JUMP JUMPDEST PUSH1 0x0 DUP1 PUSH1 0x40 DUP4 DUP6 SUB SLT ISZERO PUSH3 0x354 JUMPI PUSH3 0x353 PUSH3 0x1B1 JUMP JUMPDEST JUMPDEST PUSH1 0x0 DUP4 ADD MLOAD PUSH8 0xFFFFFFFFFFFFFFFF DUP2 GT ISZERO PUSH3 0x375 JUMPI PUSH3 0x374 PUSH3 0x1B6 JUMP JUMPDEST JUMPDEST PUSH3 0x383 DUP6 DUP3 DUP7 ADD PUSH3 0x307 JUMP JUMPDEST SWAP3 POP POP PUSH1 0x20 DUP4 ADD MLOAD PUSH8 0xFFFFFFFFFFFFFFFF DUP2 GT ISZERO PUSH3 0x3A7 JUMPI PUSH3 0x3A6 PUSH3 0x1B6 JUMP JUMPDEST JUMPDEST PUSH3 0x3B5 DUP6 DUP3 DUP7 ADD PUSH3 0x307 JUMP JUMPDEST SWAP2 POP POP SWAP3 POP SWAP3 SWAP1 POP JUMP JUMPDEST PUSH1 0x0 DUP2 MLOAD SWAP1 POP SWAP2 SWAP1 POP JUMP JUMPDEST PUSH32 0x4E487B7100000000000000000000000000000000000000000000000000000000 PUSH1 0x0 MSTORE PUSH1 0x22 PUSH1 0x4 MSTORE PUSH1 0x24 PUSH1 0x0 REVERT JUMPDEST PUSH1 0x0 PUSH1 0x2 DUP3 DIV SWAP1 POP PUSH1 0x1 DUP3 AND DUP1 PUSH3 0x412 JUMPI PUSH1 0x7F DUP3 AND SWAP2 POP JUMPDEST PUSH1 0x20 DUP3 LT DUP2 SUB PUSH3 0x428 JUMPI PUSH3 0x427 PUSH3 0x3CA JUMP JUMPDEST JUMPDEST POP SWAP2 SWAP1 POP JUMP JUMPDEST PUSH1 0x0 DUP2 SWAP1 POP DUP2 PUSH1 0x0 MSTORE PUSH1 0x20 PUSH1 0x0 KECCAK256 SWAP1 POP SWAP2 SWAP1 POP JUMP JUMPDEST PUSH1 0x0 PUSH1 0x20 PUSH1 0x1F DUP4 ADD DIV SWAP1 POP SWAP2 SWAP1 POP JUMP JUMPDEST PUSH1 0x0 DUP3 DUP3 SHL SWAP1 POP SWAP3 SWAP2 POP POP JUMP JUMPDEST PUSH1 0x0 PUSH1 0x8 DUP4 MUL PUSH3 0x492 PUSH32 0xFFFFFFFFFFFFFFFFFFFFFFFFFFFFFFFFFFFFFFFFFFFFFFFFFFFFFFFFFFFFFFFF DUP3 PUSH3 0x453 JUMP JUMPDEST PUSH3 0x49E DUP7 DUP4 PUSH3 0x453 JUMP JUMPDEST SWAP6 POP DUP1 NOT DUP5 AND SWAP4 POP DUP1 DUP7 AND DUP5 OR SWAP3 POP POP POP SWAP4 SWAP3 POP POP POP JUMP JUMPDEST PUSH1 0x0 DUP2 SWAP1 POP SWAP2 SWAP1 POP JUMP JUMPDEST PUSH1 0x0 DUP2 SWAP1 POP SWAP2 SWAP1 POP JUMP JUMPDEST PUSH1 0x0 PUSH3 0x4EB PUSH3 0x4E5 PUSH3 0x4DF DUP5 PUSH3 0x4B6 JUMP JUMPDEST PUSH3 0x4C0 JUMP JUMPDEST PUSH3 0x4B6 JUMP JUMPDEST SWAP1 POP SWAP2 SWAP1 POP JUMP JUMPDEST PUSH1 0x0 DUP2 SWAP1 POP SWAP2 SWAP1 POP JUMP JUMPDEST PUSH3 0x507 DUP4 PUSH3 0x4CA JUMP JUMPDEST PUSH3 0x51F PUSH3 0x516 DUP3 PUSH3 0x4F2 JUMP JUMPDEST DUP5 DUP5 SLOAD PUSH3 0x460 JUMP JUMPDEST DUP3 SSTORE POP POP POP POP JUMP JUMPDEST PUSH1 0x0 SWAP1 JUMP JUMPDEST PUSH3 0x536 PUSH3 0x527 JUMP JUMPDEST PUSH3 0x543 DUP2 DUP5 DUP5 PUSH3 0x4FC JUMP JUMPDEST POP POP POP JUMP JUMPDEST JUMPDEST DUP2 DUP2 LT ISZERO PUSH3 0x56B JUMPI PUSH3 0x55F PUSH1 0x0 DUP3 PUSH3 0x52C JUMP JUMPDEST PUSH1 0x1 DUP2 ADD SWAP1 POP PUSH3 0x549 JUMP JUMPDEST POP POP JUMP JUMPDEST PUSH1 0x1F DUP3 GT ISZERO PUSH3 0x5BA JUMPI PUSH3 0x584 DUP2 PUSH3 0x42E JUMP JUMPDEST PUSH3 0x58F DUP5 PUSH3 0x443 JUMP JUMPDEST DUP2 ADD PUSH1 0x20 DUP6 LT ISZERO PUSH3 0x59F JUMPI DUP2 SWAP1 POP JUMPDEST PUSH3 0x5B7 PUSH3 0x5AE DUP6 PUSH3 0x443 JUMP JUMPDEST DUP4 ADD DUP3 PUSH3 0x548 JUMP JUMPDEST POP POP JUMPDEST POP POP POP JUMP JUMPDEST PUSH1 0x0 DUP3 DUP3 SHR SWAP1 POP SWAP3 SWAP2 POP POP JUMP JUMPDEST PUSH1 0x0 PUSH3 0x5DF PUSH1 0x0 NOT DUP5 PUSH1 0x8 MUL PUSH3 0x5BF JUMP JUMPDEST NOT DUP1 DUP4 AND SWAP2 POP POP SWAP3 SWAP2 POP POP JUMP JUMPDEST PUSH1 0x0 PUSH3 0x5FA DUP4 DUP4 PUSH3 0x5CC JUMP JUMPDEST SWAP2 POP DUP3 PUSH1 0x2 MUL DUP3 OR SWAP1 POP SWAP3 SWAP2 POP POP JUMP JUMPDEST PUSH3 0x615 DUP3 PUSH3 0x3BF JUMP JUMPDEST PUSH8 0xFFFFFFFFFFFFFFFF DUP2 GT ISZERO PUSH3 0x631 JUMPI PUSH3 0x630 PUSH3 0x1D6 JUMP JUMPDEST JUMPDEST PUSH3 0x63D DUP3 SLOAD PUSH3 0x3F9 JUMP JUMPDEST PUSH3 0x64A DUP3 DUP3 DUP6 PUSH3 0x56F JUMP JUMPDEST PUSH1 0x0 PUSH1 0x20 SWAP1 POP PUSH1 0x1F DUP4 GT PUSH1 0x1 DUP2 EQ PUSH3 0x682 JUMPI PUSH1 0x0 DUP5 ISZERO PUSH3 0x66D JUMPI DUP3 DUP8 ADD MLOAD SWAP1 POP JUMPDEST PUSH3 0x679 DUP6 DUP3 PUSH3 0x5EC JUMP JUMPDEST DUP7 SSTORE POP PUSH3 0x6E9 JUMP JUMPDEST PUSH1 0x1F NOT DUP5 AND PUSH3 0x692 DUP7 PUSH3 0x42E JUMP JUMPDEST PUSH1 0x0 JUMPDEST DUP3 DUP2 LT ISZERO PUSH3 0x6BC JUMPI DUP5 DUP10 ADD MLOAD DUP3 SSTORE PUSH1 0x1 DUP3 ADD SWAP2 POP PUSH1 0x20 DUP6 ADD SWAP5 POP PUSH1 0x20 DUP2 ADD SWAP1 POP PUSH3 0x695 JUMP JUMPDEST DUP7 DUP4 LT ISZERO PUSH3 0x6DC JUMPI DUP5 DUP10 ADD MLOAD PUSH3 0x6D8 PUSH1 0x1F DUP10 AND DUP3 PUSH3 0x5CC JUMP JUMPDEST DUP4 SSTORE POP JUMPDEST PUSH1 0x1 PUSH1 0x2 DUP9 MUL ADD DUP9 SSTORE POP POP POP JUMPDEST POP POP POP POP POP POP JUMP JUMPDEST PUSH1 0x0 DUP3 DUP3 MSTORE PUSH1 0x20 DUP3 ADD SWAP1 POP SWAP3 SWAP2 POP POP JUMP JUMPDEST PUSH1 0x0 PUSH3 0x70F DUP3 PUSH3 0x3BF JUMP JUMPDEST PUSH3 0x71B DUP2 DUP6 PUSH3 0x6F1 JUMP JUMPDEST SWAP4 POP PUSH3 0x72D DUP2 DUP6 PUSH1 0x20 DUP7 ADD PUSH3 0x290 JUMP JUMPDEST PUSH3 0x738 DUP2 PUSH3 0x1C5 JUMP JUMPDEST DUP5 ADD SWAP2 POP POP SWAP3 SWAP2 POP POP JUMP JUMPDEST PUSH1 0x0 PUSH1 0x40 DUP3 ADD SWAP1 POP DUP2 DUP2 SUB PUSH1 0x0 DUP4 ADD MSTORE PUSH3 0x75F DUP2 DUP6 PUSH3 0x702 JUMP JUMPDEST SWAP1 POP DUP2 DUP2 SUB PUSH1 0x20 DUP4 ADD MSTORE PUSH3 0x775 DUP2 DUP5 PUSH3 0x702 JUMP JUMPDEST SWAP1 POP SWAP4 SWAP3 POP POP POP JUMP JUMPDEST PUSH2 0x3210 DUP1 PUSH3 0x78E PUSH1 0x0 CODECOPY PUSH1 0x0 RETURN INVALID PUSH1 0x80 PUSH1 0x40 MSTORE CALLVALUE DUP1 ISZERO PUSH2 0x10 JUMPI PUSH1 0x0 DUP1 REVERT JUMPDEST POP PUSH1 0x4 CALLDATASIZE LT PUSH2 0x10B JUMPI PUSH1 0x0 CALLDATALOAD PUSH1 0xE0 SHR DUP1 PUSH4 0x715018A6 GT PUSH2 0xA2 JUMPI DUP1 PUSH4 0xB88D4FDE GT PUSH2 0x71 JUMPI DUP1 PUSH4 0xB88D4FDE EQ PUSH2 0x2A4 JUMPI DUP1 PUSH4 0xC87B56DD EQ PUSH2 0x2C0 JUMPI DUP1 PUSH4 0xD3FC9864 EQ PUSH2 0x2F0 JUMPI DUP1 PUSH4 0xE985E9C5 EQ PUSH2 0x30C JUMPI DUP1 PUSH4 0xF2FDE38B EQ PUSH2 0x33C JUMPI PUSH2 0x10B JUMP JUMPDEST DUP1 PUSH4 0x715018A6 EQ PUSH2 0x242 JUMPI DUP1 PUSH4 0x8DA5CB5B EQ PUSH2 0x24C JUMPI DUP1 PUSH4 0x95D89B41 EQ PUSH2 0x26A JUMPI DUP1 PUSH4 0xA22CB465 EQ PUSH2 0x288 JUMPI PUSH2 0x10B JUMP JUMPDEST DUP1 PUSH4 0x23B872DD GT PUSH2 0xDE JUMPI DUP1 PUSH4 0x23B872DD EQ PUSH2 0x1AA JUMPI DUP1 PUSH4 0x42842E0E EQ PUSH2 0x1C6 JUMPI DUP1 PUSH4 0x6352211E EQ PUSH2 0x1E2 JUMPI DUP1 PUSH4 0x70A08231 EQ PUSH2 0x212 JUMPI PUSH2 0x10B JUMP JUMPDEST DUP1 PUSH4 0x1FFC9A7 EQ PUSH2 0x110 JUMPI DUP1 PUSH4 0x6FDDE03 EQ PUSH2 0x140 JUMPI DUP1 PUSH4 0x81812FC EQ PUSH2 0x15E JUMPI DUP1 PUSH4 0x95EA7B3 EQ PUSH2 0x18E JUMPI JUMPDEST PUSH1 0x0 DUP1 REVERT JUMPDEST PUSH2 0x12A PUSH1 0x4 DUP1 CALLDATASIZE SUB DUP2 ADD SWAP1 PUSH2 0x125 SWAP2 SWAP1 PUSH2 0x1BE0 JUMP JUMPDEST PUSH2 0x358 JUMP JUMPDEST PUSH1 0x40 MLOAD PUSH2 0x137 SWAP2 SWAP1 PUSH2 0x1C28 JUMP JUMPDEST PUSH1 0x40 MLOAD DUP1 SWAP2 SUB SWAP1 RETURN JUMPDEST PUSH2 0x148 PUSH2 0x43A JUMP JUMPDEST PUSH1 0x40 MLOAD PUSH2 0x155 SWAP2 SWAP1 PUSH2 0x1CD3 JUMP JUMPDEST PUSH1 0x40 MLOAD DUP1 SWAP2 SUB SWAP1 RETURN JUMPDEST PUSH2 0x178 PUSH1 0x4 DUP1 CALLDATASIZE SUB DUP2 ADD SWAP1 PUSH2 0x173 SWAP2 SWAP1 PUSH2 0x1D2B JUMP JUMPDEST PUSH2 0x4CC JUMP JUMPDEST PUSH1 0x40 MLOAD PUSH2 0x185 SWAP2 SWAP1 PUSH2 0x1D99 JUMP JUMPDEST PUSH1 0x40 MLOAD DUP1 SWAP2 SUB SWAP1 RETURN JUMPDEST PUSH2 0x1A8 PUSH1 0x4 DUP1 CALLDATASIZE SUB DUP2 ADD SWAP1 PUSH2 0x1A3 SWAP2 SWAP1 PUSH2 0x1DE0 JUMP JUMPDEST PUSH2 0x551 JUMP JUMPDEST STOP JUMPDEST PUSH2 0x1C4 PUSH1 0x4 DUP1 CALLDATASIZE SUB DUP2 ADD SWAP1 PUSH2 0x1BF SWAP2 SWAP1 PUSH2 0x1E20 JUMP JUMPDEST PUSH2 0x668 JUMP JUMPDEST STOP JUMPDEST PUSH2 0x1E0 PUSH1 0x4 DUP1 CALLDATASIZE SUB DUP2 ADD SWAP1 PUSH2 0x1DB SWAP2 SWAP1 PUSH2 0x1E20 JUMP JUMPDEST PUSH2 0x6C8 JUMP JUMPDEST STOP JUMPDEST PUSH2 0x1FC PUSH1 0x4 DUP1 CALLDATASIZE SUB DUP2 ADD SWAP1 PUSH2 0x1F7 SWAP2 SWAP1 PUSH2 0x1D2B JUMP JUMPDEST PUSH2 0x6E8 JUMP JUMPDEST PUSH1 0x40 MLOAD PUSH2 0x209 SWAP2 SWAP1 PUSH2 0x1D99 JUMP JUMPDEST PUSH1 0x40 MLOAD DUP1 SWAP2 SUB SWAP1 RETURN JUMPDEST PUSH2 0x22C PUSH1 0x4 DUP1 CALLDATASIZE SUB DUP2 ADD SWAP1 PUSH2 0x227 SWAP2 SWAP1 PUSH2 0x1E73 JUMP JUMPDEST PUSH2 0x799 JUMP JUMPDEST PUSH1 0x40 MLOAD PUSH2 0x239 SWAP2 SWAP1 PUSH2 0x1EAF JUMP JUMPDEST PUSH1 0x40 MLOAD DUP1 SWAP2 SUB SWAP1 RETURN JUMPDEST PUSH2 0x24A PUSH2 0x850 JUMP JUMPDEST STOP JUMPDEST PUSH2 0x254 PUSH2 0x8D8 JUMP JUMPDEST PUSH1 0x40 MLOAD PUSH2 0x261 SWAP2 SWAP1 PUSH2 0x1D99 JUMP JUMPDEST PUSH1 0x40 MLOAD DUP1 SWAP2 SUB SWAP1 RETURN JUMPDEST PUSH2 0x272 PUSH2 0x902 JUMP JUMPDEST PUSH1 0x40 MLOAD PUSH2 0x27F SWAP2 SWAP1 PUSH2 0x1CD3 JUMP JUMPDEST PUSH1 0x40 MLOAD DUP1 SWAP2 SUB SWAP1 RETURN JUMPDEST PUSH2 0x2A2 PUSH1 0x4 DUP1 CALLDATASIZE SUB DUP2 ADD SWAP1 PUSH2 0x29D SWAP2 SWAP1 PUSH2 0x1EF6 JUMP JUMPDEST PUSH2 0x994 JUMP JUMPDEST STOP JUMPDEST PUSH2 0x2BE PUSH1 0x4 DUP1 CALLDATASIZE SUB DUP2 ADD SWAP1 PUSH2 0x2B9 SWAP2 SWAP1 PUSH2 0x206B JUMP JUMPDEST PUSH2 0x9AA JUMP JUMPDEST STOP JUMPDEST PUSH2 0x2DA PUSH1 0x4 DUP1 CALLDATASIZE SUB DUP2 ADD SWAP1 PUSH2 0x2D5 SWAP2 SWAP1 PUSH2 0x1D2B JUMP JUMPDEST PUSH2 0xA0C JUMP JUMPDEST PUSH1 0x40 MLOAD PUSH2 0x2E7 SWAP2 SWAP1 PUSH2 0x1CD3 JUMP JUMPDEST PUSH1 0x40 MLOAD DUP1 SWAP2 SUB SWAP1 RETURN JUMPDEST PUSH2 0x30A PUSH1 0x4 DUP1 CALLDATASIZE SUB DUP2 ADD SWAP1 PUSH2 0x305 SWAP2 SWAP1 PUSH2 0x218F JUMP JUMPDEST PUSH2 0xA1E JUMP JUMPDEST STOP JUMPDEST PUSH2 0x326 PUSH1 0x4 DUP1 CALLDATASIZE SUB DUP2 ADD SWAP1 PUSH2 0x321 SWAP2 SWAP1 PUSH2 0x21FE JUMP JUMPDEST PUSH2 0xA9E JUMP JUMPDEST PUSH1 0x40 MLOAD PUSH2 0x333 SWAP2 SWAP1 PUSH2 0x1C28 JUMP JUMPDEST PUSH1 0x40 MLOAD DUP1 SWAP2 SUB SWAP1 RETURN JUMPDEST PUSH2 0x356 PUSH1 0x4 DUP1 CALLDATASIZE SUB DUP2 ADD SWAP1 PUSH2 0x351 SWAP2 SWAP1 PUSH2 0x1E73 JUMP JUMPDEST PUSH2 0xB32 JUMP JUMPDEST STOP JUMPDEST PUSH1 0x0 PUSH32 0x80AC58CD00000000000000000000000000000000000000000000000000000000 PUSH28 0xFFFFFFFFFFFFFFFFFFFFFFFFFFFFFFFFFFFFFFFFFFFFFFFFFFFFFFFF NOT AND DUP3 PUSH28 0xFFFFFFFFFFFFFFFFFFFFFFFFFFFFFFFFFFFFFFFFFFFFFFFFFFFFFFFF NOT AND EQ DUP1 PUSH2 0x423 JUMPI POP PUSH32 0x5B5E139F00000000000000000000000000000000000000000000000000000000 PUSH28 0xFFFFFFFFFFFFFFFFFFFFFFFFFFFFFFFFFFFFFFFFFFFFFFFFFFFFFFFF NOT AND DUP3 PUSH28 0xFFFFFFFFFFFFFFFFFFFFFFFFFFFFFFFFFFFFFFFFFFFFFFFFFFFFFFFF NOT AND EQ JUMPDEST DUP1 PUSH2 0x433 JUMPI POP PUSH2 0x432 DUP3 PUSH2 0xC29 JUMP JUMPDEST JUMPDEST SWAP1 POP SWAP2 SWAP1 POP JUMP JUMPDEST PUSH1 0x60 PUSH1 0x0 DUP1 SLOAD PUSH2 0x449 SWAP1 PUSH2 0x226D JUMP JUMPDEST DUP1 PUSH1 0x1F ADD PUSH1 0x20 DUP1 SWAP2 DIV MUL PUSH1 0x20 ADD PUSH1 0x40 MLOAD SWAP1 DUP2 ADD PUSH1 0x40 MSTORE DUP1 SWAP3 SWAP2 SWAP1 DUP2 DUP2 MSTORE PUSH1 0x20 ADD DUP3 DUP1 SLOAD PUSH2 0x475 SWAP1 PUSH2 0x226D JUMP JUMPDEST DUP1 ISZERO PUSH2 0x4C2 JUMPI DUP1 PUSH1 0x1F LT PUSH2 0x497 JUMPI PUSH2 0x100 DUP1 DUP4 SLOAD DIV MUL DUP4 MSTORE SWAP2 PUSH1 0x20 ADD SWAP2 PUSH2 0x4C2 JUMP JUMPDEST DUP3 ADD SWAP2 SWAP1 PUSH1 0x0 MSTORE PUSH1 0x20 PUSH1 0x0 KECCAK256 SWAP1 JUMPDEST DUP2 SLOAD DUP2 MSTORE SWAP1 PUSH1 0x1 ADD SWAP1 PUSH1 0x20 ADD DUP1 DUP4 GT PUSH2 0x4A5 JUMPI DUP3 SWAP1 SUB PUSH1 0x1F AND DUP3 ADD SWAP2 JUMPDEST POP POP POP POP POP SWAP1 POP SWAP1 JUMP JUMPDEST PUSH1 0x0 PUSH2 0x4D7 DUP3 PUSH2 0xC93 JUMP JUMPDEST PUSH2 0x516 JUMPI PUSH1 0x40 MLOAD PUSH32 0x8C379A000000000000000000000000000000000000000000000000000000000 DUP2 MSTORE PUSH1 0x4 ADD PUSH2 0x50D SWAP1 PUSH2 0x2310 JUMP JUMPDEST PUSH1 0x40 MLOAD DUP1 SWAP2 SUB SWAP1 REVERT JUMPDEST PUSH1 0x4 PUSH1 0x0 DUP4 DUP2 MSTORE PUSH1 0x20 ADD SWAP1 DUP2 MSTORE PUSH1 0x20 ADD PUSH1 0x0 KECCAK256 PUSH1 0x0 SWAP1 SLOAD SWAP1 PUSH2 0x100 EXP SWAP1 DIV PUSH20 0xFFFFFFFFFFFFFFFFFFFFFFFFFFFFFFFFFFFFFFFF AND SWAP1 POP SWAP2 SWAP1 POP JUMP JUMPDEST PUSH1 0x0 PUSH2 0x55C DUP3 PUSH2 0x6E8 JUMP JUMPDEST SWAP1 POP DUP1 PUSH20 0xFFFFFFFFFFFFFFFFFFFFFFFFFFFFFFFFFFFFFFFF AND DUP4 PUSH20 0xFFFFFFFFFFFFFFFFFFFFFFFFFFFFFFFFFFFFFFFF AND SUB PUSH2 0x5CC JUMPI PUSH1 0x40 MLOAD PUSH32 0x8C379A000000000000000000000000000000000000000000000000000000000 DUP2 MSTORE PUSH1 0x4 ADD PUSH2 0x5C3 SWAP1 PUSH2 0x23A2 JUMP JUMPDEST PUSH1 0x40 MLOAD DUP1 SWAP2 SUB SWAP1 REVERT JUMPDEST DUP1 PUSH20 0xFFFFFFFFFFFFFFFFFFFFFFFFFFFFFFFFFFFFFFFF AND PUSH2 0x5EB PUSH2 0xCFF JUMP JUMPDEST PUSH20 0xFFFFFFFFFFFFFFFFFFFFFFFFFFFFFFFFFFFFFFFF AND EQ DUP1 PUSH2 0x61A JUMPI POP PUSH2 0x619 DUP2 PUSH2 0x614 PUSH2 0xCFF JUMP JUMPDEST PUSH2 0xA9E JUMP JUMPDEST JUMPDEST PUSH2 0x659 JUMPI PUSH1 0x40 MLOAD PUSH32 0x8C379A000000000000000000000000000000000000000000000000000000000 DUP2 MSTORE PUSH1 0x4 ADD PUSH2 0x650 SWAP1 PUSH2 0x2434 JUMP JUMPDEST PUSH1 0x40 MLOAD DUP1 SWAP2 SUB SWAP1 REVERT JUMPDEST PUSH2 0x663 DUP4 DUP4 PUSH2 0xD07 JUMP JUMPDEST POP POP POP JUMP JUMPDEST PUSH2 0x679 PUSH2 0x673 PUSH2 0xCFF JUMP JUMPDEST DUP3 PUSH2 0xDC0 JUMP JUMPDEST PUSH2 0x6B8 JUMPI PUSH1 0x40 MLOAD PUSH32 0x8C379A000000000000000000000000000000000000000000000000000000000 DUP2 MSTORE PUSH1 0x4 ADD PUSH2 0x6AF SWAP1 PUSH2 0x24C6 JUMP JUMPDEST PUSH1 0x40 MLOAD DUP1 SWAP2 SUB SWAP1 REVERT JUMPDEST PUSH2 0x6C3 DUP4 DUP4 DUP4 PUSH2 0xE9E JUMP JUMPDEST POP POP POP JUMP JUMPDEST PUSH2 0x6E3 DUP4 DUP4 DUP4 PUSH1 0x40 MLOAD DUP1 PUSH1 0x20 ADD PUSH1 0x40 MSTORE DUP1 PUSH1 0x0 DUP2 MSTORE POP PUSH2 0x9AA JUMP JUMPDEST POP POP POP JUMP JUMPDEST PUSH1 0x0 DUP1 PUSH1 0x2 PUSH1 0x0 DUP5 DUP2 MSTORE PUSH1 0x20 ADD SWAP1 DUP2 MSTORE PUSH1 0x20 ADD PUSH1 0x0 KECCAK256 PUSH1 0x0 SWAP1 SLOAD SWAP1 PUSH2 0x100 EXP SWAP1 DIV PUSH20 0xFFFFFFFFFFFFFFFFFFFFFFFFFFFFFFFFFFFFFFFF AND SWAP1 POP PUSH1 0x0 PUSH20 0xFFFFFFFFFFFFFFFFFFFFFFFFFFFFFFFFFFFFFFFF AND DUP2 PUSH20 0xFFFFFFFFFFFFFFFFFFFFFFFFFFFFFFFFFFFFFFFF AND SUB PUSH2 0x790 JUMPI PUSH1 0x40 MLOAD PUSH32 0x8C379A000000000000000000000000000000000000000000000000000000000 DUP2 MSTORE PUSH1 0x4 ADD PUSH2 0x787 SWAP1 PUSH2 0x2558 JUMP JUMPDEST PUSH1 0x40 MLOAD DUP1 SWAP2 SUB SWAP1 REVERT JUMPDEST DUP1 SWAP2 POP POP SWAP2 SWAP1 POP JUMP JUMPDEST PUSH1 0x0 DUP1 PUSH20 0xFFFFFFFFFFFFFFFFFFFFFFFFFFFFFFFFFFFFFFFF AND DUP3 PUSH20 0xFFFFFFFFFFFFFFFFFFFFFFFFFFFFFFFFFFFFFFFF AND SUB PUSH2 0x809 JUMPI PUSH1 0x40 MLOAD PUSH32 0x8C379A000000000000000000000000000000000000000000000000000000000 DUP2 MSTORE PUSH1 0x4 ADD PUSH2 0x800 SWAP1 PUSH2 0x25EA JUMP JUMPDEST PUSH1 0x40 MLOAD DUP1 SWAP2 SUB SWAP1 REVERT JUMPDEST PUSH1 0x3 PUSH1 0x0 DUP4 PUSH20 0xFFFFFFFFFFFFFFFFFFFFFFFFFFFFFFFFFFFFFFFF AND PUSH20 0xFFFFFFFFFFFFFFFFFFFFFFFFFFFFFFFFFFFFFFFF AND DUP2 MSTORE PUSH1 0x20 ADD SWAP1 DUP2 MSTORE PUSH1 0x20 ADD PUSH1 0x0 KECCAK256 SLOAD SWAP1 POP SWAP2 SWAP1 POP JUMP JUMPDEST PUSH2 0x858 PUSH2 0xCFF JUMP JUMPDEST PUSH20 0xFFFFFFFFFFFFFFFFFFFFFFFFFFFFFFFFFFFFFFFF AND PUSH2 0x876 PUSH2 0x8D8 JUMP JUMPDEST PUSH20 0xFFFFFFFFFFFFFFFFFFFFFFFFFFFFFFFFFFFFFFFF AND EQ PUSH2 0x8CC JUMPI PUSH1 0x40 MLOAD PUSH32 0x8C379A000000000000000000000000000000000000000000000000000000000 DUP2 MSTORE PUSH1 0x4 ADD PUSH2 0x8C3 SWAP1 PUSH2 0x2656 JUMP JUMPDEST PUSH1 0x40 MLOAD DUP1 SWAP2 SUB SWAP1 REVERT JUMPDEST PUSH2 0x8D6 PUSH1 0x0 PUSH2 0x1104 JUMP JUMPDEST JUMP JUMPDEST PUSH1 0x0 PUSH1 0x7 PUSH1 0x0 SWAP1 SLOAD SWAP1 PUSH2 0x100 EXP SWAP1 DIV PUSH20 0xFFFFFFFFFFFFFFFFFFFFFFFFFFFFFFFFFFFFFFFF AND SWAP1 POP SWAP1 JUMP JUMPDEST PUSH1 0x60 PUSH1 0x1 DUP1 SLOAD PUSH2 0x911 SWAP1 PUSH2 0x226D JUMP JUMPDEST DUP1 PUSH1 0x1F ADD PUSH1 0x20 DUP1 SWAP2 DIV MUL PUSH1 0x20 ADD PUSH1 0x40 MLOAD SWAP1 DUP2 ADD PUSH1 0x40 MSTORE DUP1 SWAP3 SWAP2 SWAP1 DUP2 DUP2 MSTORE PUSH1 0x20 ADD DUP3 DUP1 SLOAD PUSH2 0x93D SWAP1 PUSH2 0x226D JUMP JUMPDEST DUP1 ISZERO PUSH2 0x98A JUMPI DUP1 PUSH1 0x1F LT PUSH2 0x95F JUMPI PUSH2 0x100 DUP1 DUP4 SLOAD DIV MUL DUP4 MSTORE SWAP2 PUSH1 0x20 ADD SWAP2 PUSH2 0x98A JUMP JUMPDEST DUP3 ADD SWAP2 SWAP1 PUSH1 0x0 MSTORE PUSH1 0x20 PUSH1 0x0 KECCAK256 SWAP1 JUMPDEST DUP2 SLOAD DUP2 MSTORE SWAP1 PUSH1 0x1 ADD SWAP1 PUSH1 0x20 ADD DUP1 DUP4 GT PUSH2 0x96D JUMPI DUP3 SWAP1 SUB PUSH1 0x1F AND DUP3 ADD SWAP2 JUMPDEST POP POP POP POP POP SWAP1 POP SWAP1 JUMP JUMPDEST PUSH2 0x9A6 PUSH2 0x99F PUSH2 0xCFF JUMP JUMPDEST DUP4 DUP4 PUSH2 0x11CA JUMP JUMPDEST POP POP JUMP JUMPDEST PUSH2 0x9BB PUSH2 0x9B5 PUSH2 0xCFF JUMP JUMPDEST DUP4 PUSH2 0xDC0 JUMP JUMPDEST PUSH2 0x9FA JUMPI PUSH1 0x40 MLOAD PUSH32 0x8C379A000000000000000000000000000000000000000000000000000000000 DUP2 MSTORE PUSH1 0x4 ADD PUSH2 0x9F1 SWAP1 PUSH2 0x24C6 JUMP JUMPDEST PUSH1 0x40 MLOAD DUP1 SWAP2 SUB SWAP1 REVERT JUMPDEST PUSH2 0xA06 DUP5 DUP5 DUP5 DUP5 PUSH2 0x1336 JUMP JUMPDEST POP POP POP POP JUMP JUMPDEST PUSH1 0x60 PUSH2 0xA17 DUP3 PUSH2 0x1392 JUMP JUMPDEST SWAP1 POP SWAP2 SWAP1 POP JUMP JUMPDEST PUSH2 0xA28 DUP4 DUP4 PUSH2 0x14E3 JUMP JUMPDEST PUSH2 0xA32 DUP3 DUP3 PUSH2 0x1501 JUMP JUMPDEST DUP3 PUSH20 0xFFFFFFFFFFFFFFFFFFFFFFFFFFFFFFFFFFFFFFFF AND ADDRESS PUSH20 0xFFFFFFFFFFFFFFFFFFFFFFFFFFFFFFFFFFFFFFFF AND PUSH32 0xC9FEE7CD4889F66F10FF8117316524260A5242E88E25E0656DFB3F4196A21917 DUP5 DUP5 PUSH1 0x40 MLOAD PUSH2 0xA91 SWAP3 SWAP2 SWAP1 PUSH2 0x2676 JUMP JUMPDEST PUSH1 0x40 MLOAD DUP1 SWAP2 SUB SWAP1 LOG3 POP POP POP JUMP JUMPDEST PUSH1 0x0 PUSH1 0x5 PUSH1 0x0 DUP5 PUSH20 0xFFFFFFFFFFFFFFFFFFFFFFFFFFFFFFFFFFFFFFFF AND PUSH20 0xFFFFFFFFFFFFFFFFFFFFFFFFFFFFFFFFFFFFFFFF AND DUP2 MSTORE PUSH1 0x20 ADD SWAP1 DUP2 MSTORE PUSH1 0x20 ADD PUSH1 0x0 KECCAK256 PUSH1 0x0 DUP4 PUSH20 0xFFFFFFFFFFFFFFFFFFFFFFFFFFFFFFFFFFFFFFFF AND PUSH20 0xFFFFFFFFFFFFFFFFFFFFFFFFFFFFFFFFFFFFFFFF AND DUP2 MSTORE PUSH1 0x20 ADD SWAP1 DUP2 MSTORE PUSH1 0x20 ADD PUSH1 0x0 KECCAK256 PUSH1 0x0 SWAP1 SLOAD SWAP1 PUSH2 0x100 EXP SWAP1 DIV PUSH1 0xFF AND SWAP1 POP SWAP3 SWAP2 POP POP JUMP JUMPDEST PUSH2 0xB3A PUSH2 0xCFF JUMP JUMPDEST PUSH20 0xFFFFFFFFFFFFFFFFFFFFFFFFFFFFFFFFFFFFFFFF AND PUSH2 0xB58 PUSH2 0x8D8 JUMP JUMPDEST PUSH20 0xFFFFFFFFFFFFFFFFFFFFFFFFFFFFFFFFFFFFFFFF AND EQ PUSH2 0xBAE JUMPI PUSH1 0x40 MLOAD PUSH32 0x8C379A000000000000000000000000000000000000000000000000000000000 DUP2 MSTORE PUSH1 0x4 ADD PUSH2 0xBA5 SWAP1 PUSH2 0x2656 JUMP JUMPDEST PUSH1 0x40 MLOAD DUP1 SWAP2 SUB SWAP1 REVERT JUMPDEST PUSH1 0x0 PUSH20 0xFFFFFFFFFFFFFFFFFFFFFFFFFFFFFFFFFFFFFFFF AND DUP2 PUSH20 0xFFFFFFFFFFFFFFFFFFFFFFFFFFFFFFFFFFFFFFFF AND SUB PUSH2 0xC1D JUMPI PUSH1 0x40 MLOAD PUSH32 0x8C379A000000000000000000000000000000000000000000000000000000000 DUP2 MSTORE PUSH1 0x4 ADD PUSH2 0xC14 SWAP1 PUSH2 0x2718 JUMP JUMPDEST PUSH1 0x40 MLOAD DUP1 SWAP2 SUB SWAP1 REVERT JUMPDEST PUSH2 0xC26 DUP2 PUSH2 0x1104 JUMP JUMPDEST POP JUMP JUMPDEST PUSH1 0x0 PUSH32 0x1FFC9A700000000000000000000000000000000000000000000000000000000 PUSH28 0xFFFFFFFFFFFFFFFFFFFFFFFFFFFFFFFFFFFFFFFFFFFFFFFFFFFFFFFF NOT AND DUP3 PUSH28 0xFFFFFFFFFFFFFFFFFFFFFFFFFFFFFFFFFFFFFFFFFFFFFFFFFFFFFFFF NOT AND EQ SWAP1 POP SWAP2 SWAP1 POP JUMP JUMPDEST PUSH1 0x0 DUP1 PUSH20 0xFFFFFFFFFFFFFFFFFFFFFFFFFFFFFFFFFFFFFFFF AND PUSH1 0x2 PUSH1 0x0 DUP5 DUP2 MSTORE PUSH1 0x20 ADD SWAP1 DUP2 MSTORE PUSH1 0x20 ADD PUSH1 0x0 KECCAK256 PUSH1 0x0 SWAP1 SLOAD SWAP1 PUSH2 0x100 EXP SWAP1 DIV PUSH20 0xFFFFFFFFFFFFFFFFFFFFFFFFFFFFFFFFFFFFFFFF AND PUSH20 0xFFFFFFFFFFFFFFFFFFFFFFFFFFFFFFFFFFFFFFFF AND EQ ISZERO SWAP1 POP SWAP2 SWAP1 POP JUMP JUMPDEST PUSH1 0x0 CALLER SWAP1 POP SWAP1 JUMP JUMPDEST DUP2 PUSH1 0x4 PUSH1 0x0 DUP4 DUP2 MSTORE PUSH1 0x20 ADD SWAP1 DUP2 MSTORE PUSH1 0x20 ADD PUSH1 0x0 KECCAK256 PUSH1 0x0 PUSH2 0x100 EXP DUP2 SLOAD DUP2 PUSH20 0xFFFFFFFFFFFFFFFFFFFFFFFFFFFFFFFFFFFFFFFF MUL NOT AND SWAP1 DUP4 PUSH20 0xFFFFFFFFFFFFFFFFFFFFFFFFFFFFFFFFFFFFFFFF AND MUL OR SWAP1 SSTORE POP DUP1 DUP3 PUSH20 0xFFFFFFFFFFFFFFFFFFFFFFFFFFFFFFFFFFFFFFFF AND PUSH2 0xD7A DUP4 PUSH2 0x6E8 JUMP JUMPDEST PUSH20 0xFFFFFFFFFFFFFFFFFFFFFFFFFFFFFFFFFFFFFFFF AND PUSH32 0x8C5BE1E5EBEC7D5BD14F71427D1E84F3DD0314C0F7B2291E5B200AC8C7C3B925 PUSH1 0x40 MLOAD PUSH1 0x40 MLOAD DUP1 SWAP2 SUB SWAP1 LOG4 POP POP JUMP JUMPDEST PUSH1 0x0 PUSH2 0xDCB DUP3 PUSH2 0xC93 JUMP JUMPDEST PUSH2 0xE0A JUMPI PUSH1 0x40 MLOAD PUSH32 0x8C379A000000000000000000000000000000000000000000000000000000000 DUP2 MSTORE PUSH1 0x4 ADD PUSH2 0xE01 SWAP1 PUSH2 0x27AA JUMP JUMPDEST PUSH1 0x40 MLOAD DUP1 SWAP2 SUB SWAP1 REVERT JUMPDEST PUSH1 0x0 PUSH2 0xE15 DUP4 PUSH2 0x6E8 JUMP JUMPDEST SWAP1 POP DUP1 PUSH20 0xFFFFFFFFFFFFFFFFFFFFFFFFFFFFFFFFFFFFFFFF AND DUP5 PUSH20 0xFFFFFFFFFFFFFFFFFFFFFFFFFFFFFFFFFFFFFFFF AND EQ DUP1 PUSH2 0xE84 JUMPI POP DUP4 PUSH20 0xFFFFFFFFFFFFFFFFFFFFFFFFFFFFFFFFFFFFFFFF AND PUSH2 0xE6C DUP5 PUSH2 0x4CC JUMP JUMPDEST PUSH20 0xFFFFFFFFFFFFFFFFFFFFFFFFFFFFFFFFFFFFFFFF AND EQ JUMPDEST DUP1 PUSH2 0xE95 JUMPI POP PUSH2 0xE94 DUP2 DUP6 PUSH2 0xA9E JUMP JUMPDEST JUMPDEST SWAP2 POP POP SWAP3 SWAP2 POP POP JUMP JUMPDEST DUP3 PUSH20 0xFFFFFFFFFFFFFFFFFFFFFFFFFFFFFFFFFFFFFFFF AND PUSH2 0xEBE DUP3 PUSH2 0x6E8 JUMP JUMPDEST PUSH20 0xFFFFFFFFFFFFFFFFFFFFFFFFFFFFFFFFFFFFFFFF AND EQ PUSH2 0xF14 JUMPI PUSH1 0x40 MLOAD PUSH32 0x8C379A000000000000000000000000000000000000000000000000000000000 DUP2 MSTORE PUSH1 0x4 ADD PUSH2 0xF0B SWAP1 PUSH2 0x283C JUMP JUMPDEST PUSH1 0x40 MLOAD DUP1 SWAP2 SUB SWAP1 REVERT JUMPDEST PUSH1 0x0 PUSH20 0xFFFFFFFFFFFFFFFFFFFFFFFFFFFFFFFFFFFFFFFF AND DUP3 PUSH20 0xFFFFFFFFFFFFFFFFFFFFFFFFFFFFFFFFFFFFFFFF AND SUB PUSH2 0xF83 JUMPI PUSH1 0x40 MLOAD PUSH32 0x8C379A000000000000000000000000000000000000000000000000000000000 DUP2 MSTORE PUSH1 0x4 ADD PUSH2 0xF7A SWAP1 PUSH2 0x28CE JUMP JUMPDEST PUSH1 0x40 MLOAD DUP1 SWAP2 SUB SWAP1 REVERT JUMPDEST PUSH2 0xF8E DUP4 DUP4 DUP4 PUSH2 0x156E JUMP JUMPDEST PUSH2 0xF99 PUSH1 0x0 DUP3 PUSH2 0xD07 JUMP JUMPDEST PUSH1 0x1 PUSH1 0x3 PUSH1 0x0 DUP6 PUSH20 0xFFFFFFFFFFFFFFFFFFFFFFFFFFFFFFFFFFFFFFFF AND PUSH20 0xFFFFFFFFFFFFFFFFFFFFFFFFFFFFFFFFFFFFFFFF AND DUP2 MSTORE PUSH1 0x20 ADD SWAP1 DUP2 MSTORE PUSH1 0x20 ADD PUSH1 0x0 KECCAK256 PUSH1 0x0 DUP3 DUP3 SLOAD PUSH2 0xFE9 SWAP2 SWAP1 PUSH2 0x291D JUMP JUMPDEST SWAP3 POP POP DUP2 SWAP1 SSTORE POP PUSH1 0x1 PUSH1 0x3 PUSH1 0x0 DUP5 PUSH20 0xFFFFFFFFFFFFFFFFFFFFFFFFFFFFFFFFFFFFFFFF AND PUSH20 0xFFFFFFFFFFFFFFFFFFFFFFFFFFFFFFFFFFFFFFFF AND DUP2 MSTORE PUSH1 0x20 ADD SWAP1 DUP2 MSTORE PUSH1 0x20 ADD PUSH1 0x0 KECCAK256 PUSH1 0x0 DUP3 DUP3 SLOAD PUSH2 0x1040 SWAP2 SWAP1 PUSH2 0x2951 JUMP JUMPDEST SWAP3 POP POP DUP2 SWAP1 SSTORE POP DUP2 PUSH1 0x2 PUSH1 0x0 DUP4 DUP2 MSTORE PUSH1 0x20 ADD SWAP1 DUP2 MSTORE PUSH1 0x20 ADD PUSH1 0x0 KECCAK256 PUSH1 0x0 PUSH2 0x100 EXP DUP2 SLOAD DUP2 PUSH20 0xFFFFFFFFFFFFFFFFFFFFFFFFFFFFFFFFFFFFFFFF MUL NOT AND SWAP1 DUP4 PUSH20 0xFFFFFFFFFFFFFFFFFFFFFFFFFFFFFFFFFFFFFFFF AND MUL OR SWAP1 SSTORE POP DUP1 DUP3 PUSH20 0xFFFFFFFFFFFFFFFFFFFFFFFFFFFFFFFFFFFFFFFF AND DUP5 PUSH20 0xFFFFFFFFFFFFFFFFFFFFFFFFFFFFFFFFFFFFFFFF AND PUSH32 0xDDF252AD1BE2C89B69C2B068FC378DAA952BA7F163C4A11628F55A4DF523B3EF PUSH1 0x40 MLOAD PUSH1 0x40 MLOAD DUP1 SWAP2 SUB SWAP1 LOG4 PUSH2 0x10FF DUP4 DUP4 DUP4 PUSH2 0x1573 JUMP JUMPDEST POP POP POP JUMP JUMPDEST PUSH1 0x0 PUSH1 0x7 PUSH1 0x0 SWAP1 SLOAD SWAP1 PUSH2 0x100 EXP SWAP1 DIV PUSH20 0xFFFFFFFFFFFFFFFFFFFFFFFFFFFFFFFFFFFFFFFF AND SWAP1 POP DUP2 PUSH1 0x7 PUSH1 0x0 PUSH2 0x100 EXP DUP2 SLOAD DUP2 PUSH20 0xFFFFFFFFFFFFFFFFFFFFFFFFFFFFFFFFFFFFFFFF MUL NOT AND SWAP1 DUP4 PUSH20 0xFFFFFFFFFFFFFFFFFFFFFFFFFFFFFFFFFFFFFFFF AND MUL OR SWAP1 SSTORE POP DUP2 PUSH20 0xFFFFFFFFFFFFFFFFFFFFFFFFFFFFFFFFFFFFFFFF AND DUP2 PUSH20 0xFFFFFFFFFFFFFFFFFFFFFFFFFFFFFFFFFFFFFFFF AND PUSH32 0x8BE0079C531659141344CD1FD0A4F28419497F9722A3DAAFE3B4186F6B6457E0 PUSH1 0x40 MLOAD PUSH1 0x40 MLOAD DUP1 SWAP2 SUB SWAP1 LOG3 POP POP JUMP JUMPDEST DUP2 PUSH20 0xFFFFFFFFFFFFFFFFFFFFFFFFFFFFFFFFFFFFFFFF AND DUP4 PUSH20 0xFFFFFFFFFFFFFFFFFFFFFFFFFFFFFFFFFFFFFFFF AND SUB PUSH2 0x1238 JUMPI PUSH1 0x40 MLOAD PUSH32 0x8C379A000000000000000000000000000000000000000000000000000000000 DUP2 MSTORE PUSH1 0x4 ADD PUSH2 0x122F SWAP1 PUSH2 0x29D1 JUMP JUMPDEST PUSH1 0x40 MLOAD DUP1 SWAP2 SUB SWAP1 REVERT JUMPDEST DUP1 PUSH1 0x5 PUSH1 0x0 DUP6 PUSH20 0xFFFFFFFFFFFFFFFFFFFFFFFFFFFFFFFFFFFFFFFF AND PUSH20 0xFFFFFFFFFFFFFFFFFFFFFFFFFFFFFFFFFFFFFFFF AND DUP2 MSTORE PUSH1 0x20 ADD SWAP1 DUP2 MSTORE PUSH1 0x20 ADD PUSH1 0x0 KECCAK256 PUSH1 0x0 DUP5 PUSH20 0xFFFFFFFFFFFFFFFFFFFFFFFFFFFFFFFFFFFFFFFF AND PUSH20 0xFFFFFFFFFFFFFFFFFFFFFFFFFFFFFFFFFFFFFFFF AND DUP2 MSTORE PUSH1 0x20 ADD SWAP1 DUP2 MSTORE PUSH1 0x20 ADD PUSH1 0x0 KECCAK256 PUSH1 0x0 PUSH2 0x100 EXP DUP2 SLOAD DUP2 PUSH1 0xFF MUL NOT AND SWAP1 DUP4 ISZERO ISZERO MUL OR SWAP1 SSTORE POP DUP2 PUSH20 0xFFFFFFFFFFFFFFFFFFFFFFFFFFFFFFFFFFFFFFFF AND DUP4 PUSH20 0xFFFFFFFFFFFFFFFFFFFFFFFFFFFFFFFFFFFFFFFF AND PUSH32 0x17307EAB39AB6107E8899845AD3D59BD9653F200F220920489CA2B5937696C31 DUP4 PUSH1 0x40 MLOAD PUSH2 0x1329 SWAP2 SWAP1 PUSH2 0x1C28 JUMP JUMPDEST PUSH1 0x40 MLOAD DUP1 SWAP2 SUB SWAP1 LOG3 POP POP POP JUMP JUMPDEST PUSH2 0x1341 DUP5 DUP5 DUP5 PUSH2 0xE9E JUMP JUMPDEST PUSH2 0x134D DUP5 DUP5 DUP5 DUP5 PUSH2 0x1578 JUMP JUMPDEST PUSH2 0x138C JUMPI PUSH1 0x40 MLOAD PUSH32 0x8C379A000000000000000000000000000000000000000000000000000000000 DUP2 MSTORE PUSH1 0x4 ADD PUSH2 0x1383 SWAP1 PUSH2 0x2A63 JUMP JUMPDEST PUSH1 0x40 MLOAD DUP1 SWAP2 SUB SWAP1 REVERT JUMPDEST POP POP POP POP JUMP JUMPDEST PUSH1 0x60 PUSH2 0x139D DUP3 PUSH2 0xC93 JUMP JUMPDEST PUSH2 0x13DC JUMPI PUSH1 0x40 MLOAD PUSH32 0x8C379A000000000000000000000000000000000000000000000000000000000 DUP2 MSTORE PUSH1 0x4 ADD PUSH2 0x13D3 SWAP1 PUSH2 0x2AF5 JUMP JUMPDEST PUSH1 0x40 MLOAD DUP1 SWAP2 SUB SWAP1 REVERT JUMPDEST PUSH1 0x0 PUSH1 0x6 PUSH1 0x0 DUP5 DUP2 MSTORE PUSH1 0x20 ADD SWAP1 DUP2 MSTORE PUSH1 0x20 ADD PUSH1 0x0 KECCAK256 DUP1 SLOAD PUSH2 0x13FC SWAP1 PUSH2 0x226D JUMP JUMPDEST DUP1 PUSH1 0x1F ADD PUSH1 0x20 DUP1 SWAP2 DIV MUL PUSH1 0x20 ADD PUSH1 0x40 MLOAD SWAP1 DUP2 ADD PUSH1 0x40 MSTORE DUP1 SWAP3 SWAP2 SWAP1 DUP2 DUP2 MSTORE PUSH1 0x20 ADD DUP3 DUP1 SLOAD PUSH2 0x1428 SWAP1 PUSH2 0x226D JUMP JUMPDEST DUP1 ISZERO PUSH2 0x1475 JUMPI DUP1 PUSH1 0x1F LT PUSH2 0x144A JUMPI PUSH2 0x100 DUP1 DUP4 SLOAD DIV MUL DUP4 MSTORE SWAP2 PUSH1 0x20 ADD SWAP2 PUSH2 0x1475 JUMP JUMPDEST DUP3 ADD SWAP2 SWAP1 PUSH1 0x0 MSTORE PUSH1 0x20 PUSH1 0x0 KECCAK256 SWAP1 JUMPDEST DUP2 SLOAD DUP2 MSTORE SWAP1 PUSH1 0x1 ADD SWAP1 PUSH1 0x20 ADD DUP1 DUP4 GT PUSH2 0x1458 JUMPI DUP3 SWAP1 SUB PUSH1 0x1F AND DUP3 ADD SWAP2 JUMPDEST POP POP POP POP POP SWAP1 POP PUSH1 0x0 PUSH2 0x1486 PUSH2 0x16FF JUMP JUMPDEST SWAP1 POP PUSH1 0x0 DUP2 MLOAD SUB PUSH2 0x149B JUMPI DUP2 SWAP3 POP POP POP PUSH2 0x14DE JUMP JUMPDEST PUSH1 0x0 DUP3 MLOAD GT ISZERO PUSH2 0x14D0 JUMPI DUP1 DUP3 PUSH1 0x40 MLOAD PUSH1 0x20 ADD PUSH2 0x14B8 SWAP3 SWAP2 SWAP1 PUSH2 0x2B51 JUMP JUMPDEST PUSH1 0x40 MLOAD PUSH1 0x20 DUP2 DUP4 SUB SUB DUP2 MSTORE SWAP1 PUSH1 0x40 MSTORE SWAP3 POP POP POP PUSH2 0x14DE JUMP JUMPDEST PUSH2 0x14D9 DUP5 PUSH2 0x1716 JUMP JUMPDEST SWAP3 POP POP POP JUMPDEST SWAP2 SWAP1 POP JUMP JUMPDEST PUSH2 0x14FD DUP3 DUP3 PUSH1 0x40 MLOAD DUP1 PUSH1 0x20 ADD PUSH1 0x40 MSTORE DUP1 PUSH1 0x0 DUP2 MSTORE POP PUSH2 0x17BD JUMP JUMPDEST POP POP JUMP JUMPDEST PUSH2 0x150A DUP3 PUSH2 0xC93 JUMP JUMPDEST PUSH2 0x1549 JUMPI PUSH1 0x40 MLOAD PUSH32 0x8C379A000000000000000000000000000000000000000000000000000000000 DUP2 MSTORE PUSH1 0x4 ADD PUSH2 0x1540 SWAP1 PUSH2 0x2BE7 JUMP JUMPDEST PUSH1 0x40 MLOAD DUP1 SWAP2 SUB SWAP1 REVERT JUMPDEST DUP1 PUSH1 0x6 PUSH1 0x0 DUP5 DUP2 MSTORE PUSH1 0x20 ADD SWAP1 DUP2 MSTORE PUSH1 0x20 ADD PUSH1 0x0 KECCAK256 SWAP1 DUP2 PUSH2 0x1569 SWAP2 SWAP1 PUSH2 0x2DB3 JUMP JUMPDEST POP POP POP JUMP JUMPDEST POP POP POP JUMP JUMPDEST POP POP POP JUMP JUMPDEST PUSH1 0x0 PUSH2 0x1599 DUP5 PUSH20 0xFFFFFFFFFFFFFFFFFFFFFFFFFFFFFFFFFFFFFFFF AND PUSH2 0x1818 JUMP JUMPDEST ISZERO PUSH2 0x16F2 JUMPI DUP4 PUSH20 0xFFFFFFFFFFFFFFFFFFFFFFFFFFFFFFFFFFFFFFFF AND PUSH4 0x150B7A02 PUSH2 0x15C2 PUSH2 0xCFF JUMP JUMPDEST DUP8 DUP7 DUP7 PUSH1 0x40 MLOAD DUP6 PUSH4 0xFFFFFFFF AND PUSH1 0xE0 SHL DUP2 MSTORE PUSH1 0x4 ADD PUSH2 0x15E4 SWAP5 SWAP4 SWAP3 SWAP2 SWAP1 PUSH2 0x2EDA JUMP JUMPDEST PUSH1 0x20 PUSH1 0x40 MLOAD DUP1 DUP4 SUB DUP2 PUSH1 0x0 DUP8 GAS CALL SWAP3 POP POP POP DUP1 ISZERO PUSH2 0x1620 JUMPI POP PUSH1 0x40 MLOAD RETURNDATASIZE PUSH1 0x1F NOT PUSH1 0x1F DUP3 ADD AND DUP3 ADD DUP1 PUSH1 0x40 MSTORE POP DUP2 ADD SWAP1 PUSH2 0x161D SWAP2 SWAP1 PUSH2 0x2F3B JUMP JUMPDEST PUSH1 0x1 JUMPDEST PUSH2 0x16A2 JUMPI RETURNDATASIZE DUP1 PUSH1 0x0 DUP2 EQ PUSH2 0x1650 JUMPI PUSH1 0x40 MLOAD SWAP2 POP PUSH1 0x1F NOT PUSH1 0x3F RETURNDATASIZE ADD AND DUP3 ADD PUSH1 0x40 MSTORE RETURNDATASIZE DUP3 MSTORE RETURNDATASIZE PUSH1 0x0 PUSH1 0x20 DUP5 ADD RETURNDATACOPY PUSH2 0x1655 JUMP JUMPDEST PUSH1 0x60 SWAP2 POP JUMPDEST POP PUSH1 0x0 DUP2 MLOAD SUB PUSH2 0x169A JUMPI PUSH1 0x40 MLOAD PUSH32 0x8C379A000000000000000000000000000000000000000000000000000000000 DUP2 MSTORE PUSH1 0x4 ADD PUSH2 0x1691 SWAP1 PUSH2 0x2A63 JUMP JUMPDEST PUSH1 0x40 MLOAD DUP1 SWAP2 SUB SWAP1 REVERT JUMPDEST DUP1 MLOAD DUP2 PUSH1 0x20 ADD REVERT JUMPDEST PUSH4 0x150B7A02 PUSH1 0xE0 SHL PUSH28 0xFFFFFFFFFFFFFFFFFFFFFFFFFFFFFFFFFFFFFFFFFFFFFFFFFFFFFFFF NOT AND DUP2 PUSH28 0xFFFFFFFFFFFFFFFFFFFFFFFFFFFFFFFFFFFFFFFFFFFFFFFFFFFFFFFF NOT AND EQ SWAP2 POP POP PUSH2 0x16F7 JUMP JUMPDEST PUSH1 0x1 SWAP1 POP JUMPDEST SWAP5 SWAP4 POP POP POP POP JUMP JUMPDEST PUSH1 0x60 PUSH1 0x40 MLOAD DUP1 PUSH1 0x20 ADD PUSH1 0x40 MSTORE DUP1 PUSH1 0x0 DUP2 MSTORE POP SWAP1 POP SWAP1 JUMP JUMPDEST PUSH1 0x60 PUSH2 0x1721 DUP3 PUSH2 0xC93 JUMP JUMPDEST PUSH2 0x1760 JUMPI PUSH1 0x40 MLOAD PUSH32 0x8C379A000000000000000000000000000000000000000000000000000000000 DUP2 MSTORE PUSH1 0x4 ADD PUSH2 0x1757 SWAP1 PUSH2 0x2FDA JUMP JUMPDEST PUSH1 0x40 MLOAD DUP1 SWAP2 SUB SWAP1 REVERT JUMPDEST PUSH1 0x0 PUSH2 0x176A PUSH2 0x16FF JUMP JUMPDEST SWAP1 POP PUSH1 0x0 DUP2 MLOAD GT PUSH2 0x178A JUMPI PUSH1 0x40 MLOAD DUP1 PUSH1 0x20 ADD PUSH1 0x40 MSTORE DUP1 PUSH1 0x0 DUP2 MSTORE POP PUSH2 0x17B5 JUMP JUMPDEST DUP1 PUSH2 0x1794 DUP5 PUSH2 0x183B JUMP JUMPDEST PUSH1 0x40 MLOAD PUSH1 0x20 ADD PUSH2 0x17A5 SWAP3 SWAP2 SWAP1 PUSH2 0x2B51 JUMP JUMPDEST PUSH1 0x40 MLOAD PUSH1 0x20 DUP2 DUP4 SUB SUB DUP2 MSTORE SWAP1 PUSH1 0x40 MSTORE JUMPDEST SWAP2 POP POP SWAP2 SWAP1 POP JUMP JUMPDEST PUSH2 0x17C7 DUP4 DUP4 PUSH2 0x199B JUMP JUMPDEST PUSH2 0x17D4 PUSH1 0x0 DUP5 DUP5 DUP5 PUSH2 0x1578 JUMP JUMPDEST PUSH2 0x1813 JUMPI PUSH1 0x40 MLOAD PUSH32 0x8C379A000000000000000000000000000000000000000000000000000000000 DUP2 MSTORE PUSH1 0x4 ADD PUSH2 0x180A SWAP1 PUSH2 0x2A63 JUMP JUMPDEST PUSH1 0x40 MLOAD DUP1 SWAP2 SUB SWAP1 REVERT JUMPDEST POP POP POP JUMP JUMPDEST PUSH1 0x0 DUP1 DUP3 PUSH20 0xFFFFFFFFFFFFFFFFFFFFFFFFFFFFFFFFFFFFFFFF AND EXTCODESIZE GT SWAP1 POP SWAP2 SWAP1 POP JUMP JUMPDEST PUSH1 0x60 PUSH1 0x0 DUP3 SUB PUSH2 0x1882 JUMPI PUSH1 0x40 MLOAD DUP1 PUSH1 0x40 ADD PUSH1 0x40 MSTORE DUP1 PUSH1 0x1 DUP2 MSTORE PUSH1 0x20 ADD PUSH32 0x3000000000000000000000000000000000000000000000000000000000000000 DUP2 MSTORE POP SWAP1 POP PUSH2 0x1996 JUMP JUMPDEST PUSH1 0x0 DUP3 SWAP1 POP PUSH1 0x0 JUMPDEST PUSH1 0x0 DUP3 EQ PUSH2 0x18B4 JUMPI DUP1 DUP1 PUSH2 0x189D SWAP1 PUSH2 0x2FFA JUMP JUMPDEST SWAP2 POP POP PUSH1 0xA DUP3 PUSH2 0x18AD SWAP2 SWAP1 PUSH2 0x3071 JUMP JUMPDEST SWAP2 POP PUSH2 0x188A JUMP JUMPDEST PUSH1 0x0 DUP2 PUSH8 0xFFFFFFFFFFFFFFFF DUP2 GT ISZERO PUSH2 0x18D0 JUMPI PUSH2 0x18CF PUSH2 0x1F40 JUMP JUMPDEST JUMPDEST PUSH1 0x40 MLOAD SWAP1 DUP1 DUP3 MSTORE DUP1 PUSH1 0x1F ADD PUSH1 0x1F NOT AND PUSH1 0x20 ADD DUP3 ADD PUSH1 0x40 MSTORE DUP1 ISZERO PUSH2 0x1902 JUMPI DUP2 PUSH1 0x20 ADD PUSH1 0x1 DUP3 MUL DUP1 CALLDATASIZE DUP4 CALLDATACOPY DUP1 DUP3 ADD SWAP2 POP POP SWAP1 POP JUMPDEST POP SWAP1 POP JUMPDEST PUSH1 0x0 DUP6 EQ PUSH2 0x198F JUMPI PUSH1 0x1 DUP3 PUSH2 0x191B SWAP2 SWAP1 PUSH2 0x291D JUMP JUMPDEST SWAP2 POP PUSH1 0xA DUP6 PUSH2 0x192A SWAP2 SWAP1 PUSH2 0x30A2 JUMP JUMPDEST PUSH1 0x30 PUSH2 0x1936 SWAP2 SWAP1 PUSH2 0x2951 JUMP JUMPDEST PUSH1 0xF8 SHL DUP2 DUP4 DUP2 MLOAD DUP2 LT PUSH2 0x194C JUMPI PUSH2 0x194B PUSH2 0x30D3 JUMP JUMPDEST JUMPDEST PUSH1 0x20 ADD ADD SWAP1 PUSH31 0xFFFFFFFFFFFFFFFFFFFFFFFFFFFFFFFFFFFFFFFFFFFFFFFFFFFFFFFFFFFFFF NOT AND SWAP1 DUP2 PUSH1 0x0 BYTE SWAP1 MSTORE8 POP PUSH1 0xA DUP6 PUSH2 0x1988 SWAP2 SWAP1 PUSH2 0x3071 JUMP JUMPDEST SWAP5 POP PUSH2 0x1906 JUMP JUMPDEST DUP1 SWAP4 POP POP POP POP JUMPDEST SWAP2 SWAP1 POP JUMP JUMPDEST PUSH1 0x0 PUSH20 0xFFFFFFFFFFFFFFFFFFFFFFFFFFFFFFFFFFFFFFFF AND DUP3 PUSH20 0xFFFFFFFFFFFFFFFFFFFFFFFFFFFFFFFFFFFFFFFF AND SUB PUSH2 0x1A0A JUMPI PUSH1 0x40 MLOAD PUSH32 0x8C379A000000000000000000000000000000000000000000000000000000000 DUP2 MSTORE PUSH1 0x4 ADD PUSH2 0x1A01 SWAP1 PUSH2 0x314E JUMP JUMPDEST PUSH1 0x40 MLOAD DUP1 SWAP2 SUB SWAP1 REVERT JUMPDEST PUSH2 0x1A13 DUP2 PUSH2 0xC93 JUMP JUMPDEST ISZERO PUSH2 0x1A53 JUMPI PUSH1 0x40 MLOAD PUSH32 0x8C379A000000000000000000000000000000000000000000000000000000000 DUP2 MSTORE PUSH1 0x4 ADD PUSH2 0x1A4A SWAP1 PUSH2 0x31BA JUMP JUMPDEST PUSH1 0x40 MLOAD DUP1 SWAP2 SUB SWAP1 REVERT JUMPDEST PUSH2 0x1A5F PUSH1 0x0 DUP4 DUP4 PUSH2 0x156E JUMP JUMPDEST PUSH1 0x1 PUSH1 0x3 PUSH1 0x0 DUP5 PUSH20 0xFFFFFFFFFFFFFFFFFFFFFFFFFFFFFFFFFFFFFFFF AND PUSH20 0xFFFFFFFFFFFFFFFFFFFFFFFFFFFFFFFFFFFFFFFF AND DUP2 MSTORE PUSH1 0x20 ADD SWAP1 DUP2 MSTORE PUSH1 0x20 ADD PUSH1 0x0 KECCAK256 PUSH1 0x0 DUP3 DUP3 SLOAD PUSH2 0x1AAF SWAP2 SWAP1 PUSH2 0x2951 JUMP JUMPDEST SWAP3 POP POP DUP2 SWAP1 SSTORE POP DUP2 PUSH1 0x2 PUSH1 0x0 DUP4 DUP2 MSTORE PUSH1 0x20 ADD SWAP1 DUP2 MSTORE PUSH1 0x20 ADD PUSH1 0x0 KECCAK256 PUSH1 0x0 PUSH2 0x100 EXP DUP2 SLOAD DUP2 PUSH20 0xFFFFFFFFFFFFFFFFFFFFFFFFFFFFFFFFFFFFFFFF MUL NOT AND SWAP1 DUP4 PUSH20 0xFFFFFFFFFFFFFFFFFFFFFFFFFFFFFFFFFFFFFFFF AND MUL OR SWAP1 SSTORE POP DUP1 DUP3 PUSH20 0xFFFFFFFFFFFFFFFFFFFFFFFFFFFFFFFFFFFFFFFF AND PUSH1 0x0 PUSH20 0xFFFFFFFFFFFFFFFFFFFFFFFFFFFFFFFFFFFFFFFF AND PUSH32 0xDDF252AD1BE2C89B69C2B068FC378DAA952BA7F163C4A11628F55A4DF523B3EF PUSH1 0x40 MLOAD PUSH1 0x40 MLOAD DUP1 SWAP2 SUB SWAP1 LOG4 PUSH2 0x1B70 PUSH1 0x0 DUP4 DUP4 PUSH2 0x1573 JUMP JUMPDEST POP POP JUMP JUMPDEST PUSH1 0x0 PUSH1 0x40 MLOAD SWAP1 POP SWAP1 JUMP JUMPDEST PUSH1 0x0 DUP1 REVERT JUMPDEST PUSH1 0x0 DUP1 REVERT JUMPDEST PUSH1 0x0 PUSH32 0xFFFFFFFF00000000000000000000000000000000000000000000000000000000 DUP3 AND SWAP1 POP SWAP2 SWAP1 POP JUMP JUMPDEST PUSH2 0x1BBD DUP2 PUSH2 0x1B88 JUMP JUMPDEST DUP2 EQ PUSH2 0x1BC8 JUMPI PUSH1 0x0 DUP1 REVERT JUMPDEST POP JUMP JUMPDEST PUSH1 0x0 DUP2 CALLDATALOAD SWAP1 POP PUSH2 0x1BDA DUP2 PUSH2 0x1BB4 JUMP JUMPDEST SWAP3 SWAP2 POP POP JUMP JUMPDEST PUSH1 0x0 PUSH1 0x20 DUP3 DUP5 SUB SLT ISZERO PUSH2 0x1BF6 JUMPI PUSH2 0x1BF5 PUSH2 0x1B7E JUMP JUMPDEST JUMPDEST PUSH1 0x0 PUSH2 0x1C04 DUP5 DUP3 DUP6 ADD PUSH2 0x1BCB JUMP JUMPDEST SWAP2 POP POP SWAP3 SWAP2 POP POP JUMP JUMPDEST PUSH1 0x0 DUP2 ISZERO ISZERO SWAP1 POP SWAP2 SWAP1 POP JUMP JUMPDEST PUSH2 0x1C22 DUP2 PUSH2 0x1C0D JUMP JUMPDEST DUP3 MSTORE POP POP JUMP JUMPDEST PUSH1 0x0 PUSH1 0x20 DUP3 ADD SWAP1 POP PUSH2 0x1C3D PUSH1 0x0 DUP4 ADD DUP5 PUSH2 0x1C19 JUMP JUMPDEST SWAP3 SWAP2 POP POP JUMP JUMPDEST PUSH1 0x0 DUP2 MLOAD SWAP1 POP SWAP2 SWAP1 POP JUMP JUMPDEST PUSH1 0x0 DUP3 DUP3 MSTORE PUSH1 0x20 DUP3 ADD SWAP1 POP SWAP3 SWAP2 POP POP JUMP JUMPDEST PUSH1 0x0 JUMPDEST DUP4 DUP2 LT ISZERO PUSH2 0x1C7D JUMPI DUP1 DUP3 ADD MLOAD DUP2 DUP5 ADD MSTORE PUSH1 0x20 DUP2 ADD SWAP1 POP PUSH2 0x1C62 JUMP JUMPDEST PUSH1 0x0 DUP5 DUP5 ADD MSTORE POP POP POP POP JUMP JUMPDEST PUSH1 0x0 PUSH1 0x1F NOT PUSH1 0x1F DUP4 ADD AND SWAP1 POP SWAP2 SWAP1 POP JUMP JUMPDEST PUSH1 0x0 PUSH2 0x1CA5 DUP3 PUSH2 0x1C43 JUMP JUMPDEST PUSH2 0x1CAF DUP2 DUP6 PUSH2 0x1C4E JUMP JUMPDEST SWAP4 POP PUSH2 0x1CBF DUP2 DUP6 PUSH1 0x20 DUP7 ADD PUSH2 0x1C5F JUMP JUMPDEST PUSH2 0x1CC8 DUP2 PUSH2 0x1C89 JUMP JUMPDEST DUP5 ADD SWAP2 POP POP SWAP3 SWAP2 POP POP JUMP JUMPDEST PUSH1 0x0 PUSH1 0x20 DUP3 ADD SWAP1 POP DUP2 DUP2 SUB PUSH1 0x0 DUP4 ADD MSTORE PUSH2 0x1CED DUP2 DUP5 PUSH2 0x1C9A JUMP JUMPDEST SWAP1 POP SWAP3 SWAP2 POP POP JUMP JUMPDEST PUSH1 0x0 DUP2 SWAP1 POP SWAP2 SWAP1 POP JUMP JUMPDEST PUSH2 0x1D08 DUP2 PUSH2 0x1CF5 JUMP JUMPDEST DUP2 EQ PUSH2 0x1D13 JUMPI PUSH1 0x0 DUP1 REVERT JUMPDEST POP JUMP JUMPDEST PUSH1 0x0 DUP2 CALLDATALOAD SWAP1 POP PUSH2 0x1D25 DUP2 PUSH2 0x1CFF JUMP JUMPDEST SWAP3 SWAP2 POP POP JUMP JUMPDEST PUSH1 0x0 PUSH1 0x20 DUP3 DUP5 SUB SLT ISZERO PUSH2 0x1D41 JUMPI PUSH2 0x1D40 PUSH2 0x1B7E JUMP JUMPDEST JUMPDEST PUSH1 0x0 PUSH2 0x1D4F DUP5 DUP3 DUP6 ADD PUSH2 0x1D16 JUMP JUMPDEST SWAP2 POP POP SWAP3 SWAP2 POP POP JUMP JUMPDEST PUSH1 0x0 PUSH20 0xFFFFFFFFFFFFFFFFFFFFFFFFFFFFFFFFFFFFFFFF DUP3 AND SWAP1 POP SWAP2 SWAP1 POP JUMP JUMPDEST PUSH1 0x0 PUSH2 0x1D83 DUP3 PUSH2 0x1D58 JUMP JUMPDEST SWAP1 POP SWAP2 SWAP1 POP JUMP JUMPDEST PUSH2 0x1D93 DUP2 PUSH2 0x1D78 JUMP JUMPDEST DUP3 MSTORE POP POP JUMP JUMPDEST PUSH1 0x0 PUSH1 0x20 DUP3 ADD SWAP1 POP PUSH2 0x1DAE PUSH1 0x0 DUP4 ADD DUP5 PUSH2 0x1D8A JUMP JUMPDEST SWAP3 SWAP2 POP POP JUMP JUMPDEST PUSH2 0x1DBD DUP2 PUSH2 0x1D78 JUMP JUMPDEST DUP2 EQ PUSH2 0x1DC8 JUMPI PUSH1 0x0 DUP1 REVERT JUMPDEST POP JUMP JUMPDEST PUSH1 0x0 DUP2 CALLDATALOAD SWAP1 POP PUSH2 0x1DDA DUP2 PUSH2 0x1DB4 JUMP JUMPDEST SWAP3 SWAP2 POP POP JUMP JUMPDEST PUSH1 0x0 DUP1 PUSH1 0x40 DUP4 DUP6 SUB SLT ISZERO PUSH2 0x1DF7 JUMPI PUSH2 0x1DF6 PUSH2 0x1B7E JUMP JUMPDEST JUMPDEST PUSH1 0x0 PUSH2 0x1E05 DUP6 DUP3 DUP7 ADD PUSH2 0x1DCB JUMP JUMPDEST SWAP3 POP POP PUSH1 0x20 PUSH2 0x1E16 DUP6 DUP3 DUP7 ADD PUSH2 0x1D16 JUMP JUMPDEST SWAP2 POP POP SWAP3 POP SWAP3 SWAP1 POP JUMP JUMPDEST PUSH1 0x0 DUP1 PUSH1 0x0 PUSH1 0x60 DUP5 DUP7 SUB SLT ISZERO PUSH2 0x1E39 JUMPI PUSH2 0x1E38 PUSH2 0x1B7E JUMP JUMPDEST JUMPDEST PUSH1 0x0 PUSH2 0x1E47 DUP7 DUP3 DUP8 ADD PUSH2 0x1DCB JUMP JUMPDEST SWAP4 POP POP PUSH1 0x20 PUSH2 0x1E58 DUP7 DUP3 DUP8 ADD PUSH2 0x1DCB JUMP JUMPDEST SWAP3 POP POP PUSH1 0x40 PUSH2 0x1E69 DUP7 DUP3 DUP8 ADD PUSH2 0x1D16 JUMP JUMPDEST SWAP2 POP POP SWAP3 POP SWAP3 POP SWAP3 JUMP JUMPDEST PUSH1 0x0 PUSH1 0x20 DUP3 DUP5 SUB SLT ISZERO PUSH2 0x1E89 JUMPI PUSH2 0x1E88 PUSH2 0x1B7E JUMP JUMPDEST JUMPDEST PUSH1 0x0 PUSH2 0x1E97 DUP5 DUP3 DUP6 ADD PUSH2 0x1DCB JUMP JUMPDEST SWAP2 POP POP SWAP3 SWAP2 POP POP JUMP JUMPDEST PUSH2 0x1EA9 DUP2 PUSH2 0x1CF5 JUMP JUMPDEST DUP3 MSTORE POP POP JUMP JUMPDEST PUSH1 0x0 PUSH1 0x20 DUP3 ADD SWAP1 POP PUSH2 0x1EC4 PUSH1 0x0 DUP4 ADD DUP5 PUSH2 0x1EA0 JUMP JUMPDEST SWAP3 SWAP2 POP POP JUMP JUMPDEST PUSH2 0x1ED3 DUP2 PUSH2 0x1C0D JUMP JUMPDEST DUP2 EQ PUSH2 0x1EDE JUMPI PUSH1 0x0 DUP1 REVERT JUMPDEST POP JUMP JUMPDEST PUSH1 0x0 DUP2 CALLDATALOAD SWAP1 POP PUSH2 0x1EF0 DUP2 PUSH2 0x1ECA JUMP JUMPDEST SWAP3 SWAP2 POP POP JUMP JUMPDEST PUSH1 0x0 DUP1 PUSH1 0x40 DUP4 DUP6 SUB SLT ISZERO PUSH2 0x1F0D JUMPI PUSH2 0x1F0C PUSH2 0x1B7E JUMP JUMPDEST JUMPDEST PUSH1 0x0 PUSH2 0x1F1B DUP6 DUP3 DUP7 ADD PUSH2 0x1DCB JUMP JUMPDEST SWAP3 POP POP PUSH1 0x20 PUSH2 0x1F2C DUP6 DUP3 DUP7 ADD PUSH2 0x1EE1 JUMP JUMPDEST SWAP2 POP POP SWAP3 POP SWAP3 SWAP1 POP JUMP JUMPDEST PUSH1 0x0 DUP1 REVERT JUMPDEST PUSH1 0x0 DUP1 REVERT JUMPDEST PUSH32 0x4E487B7100000000000000000000000000000000000000000000000000000000 PUSH1 0x0 MSTORE PUSH1 0x41 PUSH1 0x4 MSTORE PUSH1 0x24 PUSH1 0x0 REVERT JUMPDEST PUSH2 0x1F78 DUP3 PUSH2 0x1C89 JUMP JUMPDEST DUP2 ADD DUP2 DUP2 LT PUSH8 0xFFFFFFFFFFFFFFFF DUP3 GT OR ISZERO PUSH2 0x1F97 JUMPI PUSH2 0x1F96 PUSH2 0x1F40 JUMP JUMPDEST JUMPDEST DUP1 PUSH1 0x40 MSTORE POP POP POP JUMP JUMPDEST PUSH1 0x0 PUSH2 0x1FAA PUSH2 0x1B74 JUMP JUMPDEST SWAP1 POP PUSH2 0x1FB6 DUP3 DUP3 PUSH2 0x1F6F JUMP JUMPDEST SWAP2 SWAP1 POP JUMP JUMPDEST PUSH1 0x0 PUSH8 0xFFFFFFFFFFFFFFFF DUP3 GT ISZERO PUSH2 0x1FD6 JUMPI PUSH2 0x1FD5 PUSH2 0x1F40 JUMP JUMPDEST JUMPDEST PUSH2 0x1FDF DUP3 PUSH2 0x1C89 JUMP JUMPDEST SWAP1 POP PUSH1 0x20 DUP2 ADD SWAP1 POP SWAP2 SWAP1 POP JUMP JUMPDEST DUP3 DUP2 DUP4 CALLDATACOPY PUSH1 0x0 DUP4 DUP4 ADD MSTORE POP POP POP JUMP JUMPDEST PUSH1 0x0 PUSH2 0x200E PUSH2 0x2009 DUP5 PUSH2 0x1FBB JUMP JUMPDEST PUSH2 0x1FA0 JUMP JUMPDEST SWAP1 POP DUP3 DUP2 MSTORE PUSH1 0x20 DUP2 ADD DUP5 DUP5 DUP5 ADD GT ISZERO PUSH2 0x202A JUMPI PUSH2 0x2029 PUSH2 0x1F3B JUMP JUMPDEST JUMPDEST PUSH2 0x2035 DUP5 DUP3 DUP6 PUSH2 0x1FEC JUMP JUMPDEST POP SWAP4 SWAP3 POP POP POP JUMP JUMPDEST PUSH1 0x0 DUP3 PUSH1 0x1F DUP4 ADD SLT PUSH2 0x2052 JUMPI PUSH2 0x2051 PUSH2 0x1F36 JUMP JUMPDEST JUMPDEST DUP2 CALLDATALOAD PUSH2 0x2062 DUP5 DUP3 PUSH1 0x20 DUP7 ADD PUSH2 0x1FFB JUMP JUMPDEST SWAP2 POP POP SWAP3 SWAP2 POP POP JUMP JUMPDEST PUSH1 0x0 DUP1 PUSH1 0x0 DUP1 PUSH1 0x80 DUP6 DUP8 SUB SLT ISZERO PUSH2 0x2085 JUMPI PUSH2 0x2084 PUSH2 0x1B7E JUMP JUMPDEST JUMPDEST PUSH1 0x0 PUSH2 0x2093 DUP8 DUP3 DUP9 ADD PUSH2 0x1DCB JUMP JUMPDEST SWAP5 POP POP PUSH1 0x20 PUSH2 0x20A4 DUP8 DUP3 DUP9 ADD PUSH2 0x1DCB JUMP JUMPDEST SWAP4 POP POP PUSH1 0x40 PUSH2 0x20B5 DUP8 DUP3 DUP9 ADD PUSH2 0x1D16 JUMP JUMPDEST SWAP3 POP POP PUSH1 0x60 DUP6 ADD CALLDATALOAD PUSH8 0xFFFFFFFFFFFFFFFF DUP2 GT ISZERO PUSH2 0x20D6 JUMPI PUSH2 0x20D5 PUSH2 0x1B83 JUMP JUMPDEST JUMPDEST PUSH2 0x20E2 DUP8 DUP3 DUP9 ADD PUSH2 0x203D JUMP JUMPDEST SWAP2 POP POP SWAP3 SWAP6 SWAP2 SWAP5 POP SWAP3 POP JUMP JUMPDEST PUSH1 0x0 PUSH8 0xFFFFFFFFFFFFFFFF DUP3 GT ISZERO PUSH2 0x2109 JUMPI PUSH2 0x2108 PUSH2 0x1F40 JUMP JUMPDEST JUMPDEST PUSH2 0x2112 DUP3 PUSH2 0x1C89 JUMP JUMPDEST SWAP1 POP PUSH1 0x20 DUP2 ADD SWAP1 POP SWAP2 SWAP1 POP JUMP JUMPDEST PUSH1 0x0 PUSH2 0x2132 PUSH2 0x212D DUP5 PUSH2 0x20EE JUMP JUMPDEST PUSH2 0x1FA0 JUMP JUMPDEST SWAP1 POP DUP3 DUP2 MSTORE PUSH1 0x20 DUP2 ADD DUP5 DUP5 DUP5 ADD GT ISZERO PUSH2 0x214E JUMPI PUSH2 0x214D PUSH2 0x1F3B JUMP JUMPDEST JUMPDEST PUSH2 0x2159 DUP5 DUP3 DUP6 PUSH2 0x1FEC JUMP JUMPDEST POP SWAP4 SWAP3 POP POP POP JUMP JUMPDEST PUSH1 0x0 DUP3 PUSH1 0x1F DUP4 ADD SLT PUSH2 0x2176 JUMPI PUSH2 0x2175 PUSH2 0x1F36 JUMP JUMPDEST JUMPDEST DUP2 CALLDATALOAD PUSH2 0x2186 DUP5 DUP3 PUSH1 0x20 DUP7 ADD PUSH2 0x211F JUMP JUMPDEST SWAP2 POP POP SWAP3 SWAP2 POP POP JUMP JUMPDEST PUSH1 0x0 DUP1 PUSH1 0x0 PUSH1 0x60 DUP5 DUP7 SUB SLT ISZERO PUSH2 0x21A8 JUMPI PUSH2 0x21A7 PUSH2 0x1B7E JUMP JUMPDEST JUMPDEST PUSH1 0x0 PUSH2 0x21B6 DUP7 DUP3 DUP8 ADD PUSH2 0x1DCB JUMP JUMPDEST SWAP4 POP POP PUSH1 0x20 PUSH2 0x21C7 DUP7 DUP3 DUP8 ADD PUSH2 0x1D16 JUMP JUMPDEST SWAP3 POP POP PUSH1 0x40 DUP5 ADD CALLDATALOAD PUSH8 0xFFFFFFFFFFFFFFFF DUP2 GT ISZERO PUSH2 0x21E8 JUMPI PUSH2 0x21E7 PUSH2 0x1B83 JUMP JUMPDEST JUMPDEST PUSH2 0x21F4 DUP7 DUP3 DUP8 ADD PUSH2 0x2161 JUMP JUMPDEST SWAP2 POP POP SWAP3 POP SWAP3 POP SWAP3 JUMP JUMPDEST PUSH1 0x0 DUP1 PUSH1 0x40 DUP4 DUP6 SUB SLT ISZERO PUSH2 0x2215 JUMPI PUSH2 0x2214 PUSH2 0x1B7E JUMP JUMPDEST JUMPDEST PUSH1 0x0 PUSH2 0x2223 DUP6 DUP3 DUP7 ADD PUSH2 0x1DCB JUMP JUMPDEST SWAP3 POP POP PUSH1 0x20 PUSH2 0x2234 DUP6 DUP3 DUP7 ADD PUSH2 0x1DCB JUMP JUMPDEST SWAP2 POP POP SWAP3 POP SWAP3 SWAP1 POP JUMP JUMPDEST PUSH32 0x4E487B7100000000000000000000000000000000000000000000000000000000 PUSH1 0x0 MSTORE PUSH1 0x22 PUSH1 0x4 MSTORE PUSH1 0x24 PUSH1 0x0 REVERT JUMPDEST PUSH1 0x0 PUSH1 0x2 DUP3 DIV SWAP1 POP PUSH1 0x1 DUP3 AND DUP1 PUSH2 0x2285 JUMPI PUSH1 0x7F DUP3 AND SWAP2 POP JUMPDEST PUSH1 0x20 DUP3 LT DUP2 SUB PUSH2 0x2298 JUMPI PUSH2 0x2297 PUSH2 0x223E JUMP JUMPDEST JUMPDEST POP SWAP2 SWAP1 POP JUMP JUMPDEST PUSH32 0x4552433732313A20617070726F76656420717565727920666F72206E6F6E6578 PUSH1 0x0 DUP3 ADD MSTORE PUSH32 0x697374656E7420746F6B656E0000000000000000000000000000000000000000 PUSH1 0x20 DUP3 ADD MSTORE POP JUMP JUMPDEST PUSH1 0x0 PUSH2 0x22FA PUSH1 0x2C DUP4 PUSH2 0x1C4E JUMP JUMPDEST SWAP2 POP PUSH2 0x2305 DUP3 PUSH2 0x229E JUMP JUMPDEST PUSH1 0x40 DUP3 ADD SWAP1 POP SWAP2 SWAP1 POP JUMP JUMPDEST PUSH1 0x0 PUSH1 0x20 DUP3 ADD SWAP1 POP DUP2 DUP2 SUB PUSH1 0x0 DUP4 ADD MSTORE PUSH2 0x2329 DUP2 PUSH2 0x22ED JUMP JUMPDEST SWAP1 POP SWAP2 SWAP1 POP JUMP JUMPDEST PUSH32 0x4552433732313A20617070726F76616C20746F2063757272656E74206F776E65 PUSH1 0x0 DUP3 ADD MSTORE PUSH32 0x7200000000000000000000000000000000000000000000000000000000000000 PUSH1 0x20 DUP3 ADD MSTORE POP JUMP JUMPDEST PUSH1 0x0 PUSH2 0x238C PUSH1 0x21 DUP4 PUSH2 0x1C4E JUMP JUMPDEST SWAP2 POP PUSH2 0x2397 DUP3 PUSH2 0x2330 JUMP JUMPDEST PUSH1 0x40 DUP3 ADD SWAP1 POP SWAP2 SWAP1 POP JUMP JUMPDEST PUSH1 0x0 PUSH1 0x20 DUP3 ADD SWAP1 POP DUP2 DUP2 SUB PUSH1 0x0 DUP4 ADD MSTORE PUSH2 0x23BB DUP2 PUSH2 0x237F JUMP JUMPDEST SWAP1 POP SWAP2 SWAP1 POP JUMP JUMPDEST PUSH32 0x4552433732313A20617070726F76652063616C6C6572206973206E6F74206F77 PUSH1 0x0 DUP3 ADD MSTORE PUSH32 0x6E6572206E6F7220617070726F76656420666F7220616C6C0000000000000000 PUSH1 0x20 DUP3 ADD MSTORE POP JUMP JUMPDEST PUSH1 0x0 PUSH2 0x241E PUSH1 0x38 DUP4 PUSH2 0x1C4E JUMP JUMPDEST SWAP2 POP PUSH2 0x2429 DUP3 PUSH2 0x23C2 JUMP JUMPDEST PUSH1 0x40 DUP3 ADD SWAP1 POP SWAP2 SWAP1 POP JUMP JUMPDEST PUSH1 0x0 PUSH1 0x20 DUP3 ADD SWAP1 POP DUP2 DUP2 SUB PUSH1 0x0 DUP4 ADD MSTORE PUSH2 0x244D DUP2 PUSH2 0x2411 JUMP JUMPDEST SWAP1 POP SWAP2 SWAP1 POP JUMP JUMPDEST PUSH32 0x4552433732313A207472616E736665722063616C6C6572206973206E6F74206F PUSH1 0x0 DUP3 ADD MSTORE PUSH32 0x776E6572206E6F7220617070726F766564000000000000000000000000000000 PUSH1 0x20 DUP3 ADD MSTORE POP JUMP JUMPDEST PUSH1 0x0 PUSH2 0x24B0 PUSH1 0x31 DUP4 PUSH2 0x1C4E JUMP JUMPDEST SWAP2 POP PUSH2 0x24BB DUP3 PUSH2 0x2454 JUMP JUMPDEST PUSH1 0x40 DUP3 ADD SWAP1 POP SWAP2 SWAP1 POP JUMP JUMPDEST PUSH1 0x0 PUSH1 0x20 DUP3 ADD SWAP1 POP DUP2 DUP2 SUB PUSH1 0x0 DUP4 ADD MSTORE PUSH2 0x24DF DUP2 PUSH2 0x24A3 JUMP JUMPDEST SWAP1 POP SWAP2 SWAP1 POP JUMP JUMPDEST PUSH32 0x4552433732313A206F776E657220717565727920666F72206E6F6E6578697374 PUSH1 0x0 DUP3 ADD MSTORE PUSH32 0x656E7420746F6B656E0000000000000000000000000000000000000000000000 PUSH1 0x20 DUP3 ADD MSTORE POP JUMP JUMPDEST PUSH1 0x0 PUSH2 0x2542 PUSH1 0x29 DUP4 PUSH2 0x1C4E JUMP JUMPDEST SWAP2 POP PUSH2 0x254D DUP3 PUSH2 0x24E6 JUMP JUMPDEST PUSH1 0x40 DUP3 ADD SWAP1 POP SWAP2 SWAP1 POP JUMP JUMPDEST PUSH1 0x0 PUSH1 0x20 DUP3 ADD SWAP1 POP DUP2 DUP2 SUB PUSH1 0x0 DUP4 ADD MSTORE PUSH2 0x2571 DUP2 PUSH2 0x2535 JUMP JUMPDEST SWAP1 POP SWAP2 SWAP1 POP JUMP JUMPDEST PUSH32 0x4552433732313A2062616C616E636520717565727920666F7220746865207A65 PUSH1 0x0 DUP3 ADD MSTORE PUSH32 0x726F206164647265737300000000000000000000000000000000000000000000 PUSH1 0x20 DUP3 ADD MSTORE POP JUMP JUMPDEST PUSH1 0x0 PUSH2 0x25D4 PUSH1 0x2A DUP4 PUSH2 0x1C4E JUMP JUMPDEST SWAP2 POP PUSH2 0x25DF DUP3 PUSH2 0x2578 JUMP JUMPDEST PUSH1 0x40 DUP3 ADD SWAP1 POP SWAP2 SWAP1 POP JUMP JUMPDEST PUSH1 0x0 PUSH1 0x20 DUP3 ADD SWAP1 POP DUP2 DUP2 SUB PUSH1 0x0 DUP4 ADD MSTORE PUSH2 0x2603 DUP2 PUSH2 0x25C7 JUMP JUMPDEST SWAP1 POP SWAP2 SWAP1 POP JUMP JUMPDEST PUSH32 0x4F776E61626C653A2063616C6C6572206973206E6F7420746865206F776E6572 PUSH1 0x0 DUP3 ADD MSTORE POP JUMP JUMPDEST PUSH1 0x0 PUSH2 0x2640 PUSH1 0x20 DUP4 PUSH2 0x1C4E JUMP JUMPDEST SWAP2 POP PUSH2 0x264B DUP3 PUSH2 0x260A JUMP JUMPDEST PUSH1 0x20 DUP3 ADD SWAP1 POP SWAP2 SWAP1 POP JUMP JUMPDEST PUSH1 0x0 PUSH1 0x20 DUP3 ADD SWAP1 POP DUP2 DUP2 SUB PUSH1 0x0 DUP4 ADD MSTORE PUSH2 0x266F DUP2 PUSH2 0x2633 JUMP JUMPDEST SWAP1 POP SWAP2 SWAP1 POP JUMP JUMPDEST PUSH1 0x0 PUSH1 0x40 DUP3 ADD SWAP1 POP PUSH2 0x268B PUSH1 0x0 DUP4 ADD DUP6 PUSH2 0x1EA0 JUMP JUMPDEST DUP2 DUP2 SUB PUSH1 0x20 DUP4 ADD MSTORE PUSH2 0x269D DUP2 DUP5 PUSH2 0x1C9A JUMP JUMPDEST SWAP1 POP SWAP4 SWAP3 POP POP POP JUMP JUMPDEST PUSH32 0x4F776E61626C653A206E6577206F776E657220697320746865207A65726F2061 PUSH1 0x0 DUP3 ADD MSTORE PUSH32 0x6464726573730000000000000000000000000000000000000000000000000000 PUSH1 0x20 DUP3 ADD MSTORE POP JUMP JUMPDEST PUSH1 0x0 PUSH2 0x2702 PUSH1 0x26 DUP4 PUSH2 0x1C4E JUMP JUMPDEST SWAP2 POP PUSH2 0x270D DUP3 PUSH2 0x26A6 JUMP JUMPDEST PUSH1 0x40 DUP3 ADD SWAP1 POP SWAP2 SWAP1 POP JUMP JUMPDEST PUSH1 0x0 PUSH1 0x20 DUP3 ADD SWAP1 POP DUP2 DUP2 SUB PUSH1 0x0 DUP4 ADD MSTORE PUSH2 0x2731 DUP2 PUSH2 0x26F5 JUMP JUMPDEST SWAP1 POP SWAP2 SWAP1 POP JUMP JUMPDEST PUSH32 0x4552433732313A206F70657261746F7220717565727920666F72206E6F6E6578 PUSH1 0x0 DUP3 ADD MSTORE PUSH32 0x697374656E7420746F6B656E0000000000000000000000000000000000000000 PUSH1 0x20 DUP3 ADD MSTORE POP JUMP JUMPDEST PUSH1 0x0 PUSH2 0x2794 PUSH1 0x2C DUP4 PUSH2 0x1C4E JUMP JUMPDEST SWAP2 POP PUSH2 0x279F DUP3 PUSH2 0x2738 JUMP JUMPDEST PUSH1 0x40 DUP3 ADD SWAP1 POP SWAP2 SWAP1 POP JUMP JUMPDEST PUSH1 0x0 PUSH1 0x20 DUP3 ADD SWAP1 POP DUP2 DUP2 SUB PUSH1 0x0 DUP4 ADD MSTORE PUSH2 0x27C3 DUP2 PUSH2 0x2787 JUMP JUMPDEST SWAP1 POP SWAP2 SWAP1 POP JUMP JUMPDEST PUSH32 0x4552433732313A207472616E736665722066726F6D20696E636F727265637420 PUSH1 0x0 DUP3 ADD MSTORE PUSH32 0x6F776E6572000000000000000000000000000000000000000000000000000000 PUSH1 0x20 DUP3 ADD MSTORE POP JUMP JUMPDEST PUSH1 0x0 PUSH2 0x2826 PUSH1 0x25 DUP4 PUSH2 0x1C4E JUMP JUMPDEST SWAP2 POP PUSH2 0x2831 DUP3 PUSH2 0x27CA JUMP JUMPDEST PUSH1 0x40 DUP3 ADD SWAP1 POP SWAP2 SWAP1 POP JUMP JUMPDEST PUSH1 0x0 PUSH1 0x20 DUP3 ADD SWAP1 POP DUP2 DUP2 SUB PUSH1 0x0 DUP4 ADD MSTORE PUSH2 0x2855 DUP2 PUSH2 0x2819 JUMP JUMPDEST SWAP1 POP SWAP2 SWAP1 POP JUMP JUMPDEST PUSH32 0x4552433732313A207472616E7366657220746F20746865207A65726F20616464 PUSH1 0x0 DUP3 ADD MSTORE PUSH32 0x7265737300000000000000000000000000000000000000000000000000000000 PUSH1 0x20 DUP3 ADD MSTORE POP JUMP JUMPDEST PUSH1 0x0 PUSH2 0x28B8 PUSH1 0x24 DUP4 PUSH2 0x1C4E JUMP JUMPDEST SWAP2 POP PUSH2 0x28C3 DUP3 PUSH2 0x285C JUMP JUMPDEST PUSH1 0x40 DUP3 ADD SWAP1 POP SWAP2 SWAP1 POP JUMP JUMPDEST PUSH1 0x0 PUSH1 0x20 DUP3 ADD SWAP1 POP DUP2 DUP2 SUB PUSH1 0x0 DUP4 ADD MSTORE PUSH2 0x28E7 DUP2 PUSH2 0x28AB JUMP JUMPDEST SWAP1 POP SWAP2 SWAP1 POP JUMP JUMPDEST PUSH32 0x4E487B7100000000000000000000000000000000000000000000000000000000 PUSH1 0x0 MSTORE PUSH1 0x11 PUSH1 0x4 MSTORE PUSH1 0x24 PUSH1 0x0 REVERT JUMPDEST PUSH1 0x0 PUSH2 0x2928 DUP3 PUSH2 0x1CF5 JUMP JUMPDEST SWAP2 POP PUSH2 0x2933 DUP4 PUSH2 0x1CF5 JUMP JUMPDEST SWAP3 POP DUP3 DUP3 SUB SWAP1 POP DUP2 DUP2 GT ISZERO PUSH2 0x294B JUMPI PUSH2 0x294A PUSH2 0x28EE JUMP JUMPDEST JUMPDEST SWAP3 SWAP2 POP POP JUMP JUMPDEST PUSH1 0x0 PUSH2 0x295C DUP3 PUSH2 0x1CF5 JUMP JUMPDEST SWAP2 POP PUSH2 0x2967 DUP4 PUSH2 0x1CF5 JUMP JUMPDEST SWAP3 POP DUP3 DUP3 ADD SWAP1 POP DUP1 DUP3 GT ISZERO PUSH2 0x297F JUMPI PUSH2 0x297E PUSH2 0x28EE JUMP JUMPDEST JUMPDEST SWAP3 SWAP2 POP POP JUMP JUMPDEST PUSH32 0x4552433732313A20617070726F766520746F2063616C6C657200000000000000 PUSH1 0x0 DUP3 ADD MSTORE POP JUMP JUMPDEST PUSH1 0x0 PUSH2 0x29BB PUSH1 0x19 DUP4 PUSH2 0x1C4E JUMP JUMPDEST SWAP2 POP PUSH2 0x29C6 DUP3 PUSH2 0x2985 JUMP JUMPDEST PUSH1 0x20 DUP3 ADD SWAP1 POP SWAP2 SWAP1 POP JUMP JUMPDEST PUSH1 0x0 PUSH1 0x20 DUP3 ADD SWAP1 POP DUP2 DUP2 SUB PUSH1 0x0 DUP4 ADD MSTORE PUSH2 0x29EA DUP2 PUSH2 0x29AE JUMP JUMPDEST SWAP1 POP SWAP2 SWAP1 POP JUMP JUMPDEST PUSH32 0x4552433732313A207472616E7366657220746F206E6F6E204552433732315265 PUSH1 0x0 DUP3 ADD MSTORE PUSH32 0x63656976657220696D706C656D656E7465720000000000000000000000000000 PUSH1 0x20 DUP3 ADD MSTORE POP JUMP JUMPDEST PUSH1 0x0 PUSH2 0x2A4D PUSH1 0x32 DUP4 PUSH2 0x1C4E JUMP JUMPDEST SWAP2 POP PUSH2 0x2A58 DUP3 PUSH2 0x29F1 JUMP JUMPDEST PUSH1 0x40 DUP3 ADD SWAP1 POP SWAP2 SWAP1 POP JUMP JUMPDEST PUSH1 0x0 PUSH1 0x20 DUP3 ADD SWAP1 POP DUP2 DUP2 SUB PUSH1 0x0 DUP4 ADD MSTORE PUSH2 0x2A7C DUP2 PUSH2 0x2A40 JUMP JUMPDEST SWAP1 POP SWAP2 SWAP1 POP JUMP JUMPDEST PUSH32 0x45524337323155524953746F726167653A2055524920717565727920666F7220 PUSH1 0x0 DUP3 ADD MSTORE PUSH32 0x6E6F6E6578697374656E7420746F6B656E000000000000000000000000000000 PUSH1 0x20 DUP3 ADD MSTORE POP JUMP JUMPDEST PUSH1 0x0 PUSH2 0x2ADF PUSH1 0x31 DUP4 PUSH2 0x1C4E JUMP JUMPDEST SWAP2 POP PUSH2 0x2AEA DUP3 PUSH2 0x2A83 JUMP JUMPDEST PUSH1 0x40 DUP3 ADD SWAP1 POP SWAP2 SWAP1 POP JUMP JUMPDEST PUSH1 0x0 PUSH1 0x20 DUP3 ADD SWAP1 POP DUP2 DUP2 SUB PUSH1 0x0 DUP4 ADD MSTORE PUSH2 0x2B0E DUP2 PUSH2 0x2AD2 JUMP JUMPDEST SWAP1 POP SWAP2 SWAP1 POP JUMP JUMPDEST PUSH1 0x0 DUP2 SWAP1 POP SWAP3 SWAP2 POP POP JUMP JUMPDEST PUSH1 0x0 PUSH2 0x2B2B DUP3 PUSH2 0x1C43 JUMP JUMPDEST PUSH2 0x2B35 DUP2 DUP6 PUSH2 0x2B15 JUMP JUMPDEST SWAP4 POP PUSH2 0x2B45 DUP2 DUP6 PUSH1 0x20 DUP7 ADD PUSH2 0x1C5F JUMP JUMPDEST DUP1 DUP5 ADD SWAP2 POP POP SWAP3 SWAP2 POP POP JUMP JUMPDEST PUSH1 0x0 PUSH2 0x2B5D DUP3 DUP6 PUSH2 0x2B20 JUMP JUMPDEST SWAP2 POP PUSH2 0x2B69 DUP3 DUP5 PUSH2 0x2B20 JUMP JUMPDEST SWAP2 POP DUP2 SWAP1 POP SWAP4 SWAP3 POP POP POP JUMP JUMPDEST PUSH32 0x45524337323155524953746F726167653A2055524920736574206F66206E6F6E PUSH1 0x0 DUP3 ADD MSTORE PUSH32 0x6578697374656E7420746F6B656E000000000000000000000000000000000000 PUSH1 0x20 DUP3 ADD MSTORE POP JUMP JUMPDEST PUSH1 0x0 PUSH2 0x2BD1 PUSH1 0x2E DUP4 PUSH2 0x1C4E JUMP JUMPDEST SWAP2 POP PUSH2 0x2BDC DUP3 PUSH2 0x2B75 JUMP JUMPDEST PUSH1 0x40 DUP3 ADD SWAP1 POP SWAP2 SWAP1 POP JUMP JUMPDEST PUSH1 0x0 PUSH1 0x20 DUP3 ADD SWAP1 POP DUP2 DUP2 SUB PUSH1 0x0 DUP4 ADD MSTORE PUSH2 0x2C00 DUP2 PUSH2 0x2BC4 JUMP JUMPDEST SWAP1 POP SWAP2 SWAP1 POP JUMP JUMPDEST PUSH1 0x0 DUP2 SWAP1 POP DUP2 PUSH1 0x0 MSTORE PUSH1 0x20 PUSH1 0x0 KECCAK256 SWAP1 POP SWAP2 SWAP1 POP JUMP JUMPDEST PUSH1 0x0 PUSH1 0x20 PUSH1 0x1F DUP4 ADD DIV SWAP1 POP SWAP2 SWAP1 POP JUMP JUMPDEST PUSH1 0x0 DUP3 DUP3 SHL SWAP1 POP SWAP3 SWAP2 POP POP JUMP JUMPDEST PUSH1 0x0 PUSH1 0x8 DUP4 MUL PUSH2 0x2C69 PUSH32 0xFFFFFFFFFFFFFFFFFFFFFFFFFFFFFFFFFFFFFFFFFFFFFFFFFFFFFFFFFFFFFFFF DUP3 PUSH2 0x2C2C JUMP JUMPDEST PUSH2 0x2C73 DUP7 DUP4 PUSH2 0x2C2C JUMP JUMPDEST SWAP6 POP DUP1 NOT DUP5 AND SWAP4 POP DUP1 DUP7 AND DUP5 OR SWAP3 POP POP POP SWAP4 SWAP3 POP POP POP JUMP JUMPDEST PUSH1 0x0 DUP2 SWAP1 POP SWAP2 SWAP1 POP JUMP JUMPDEST PUSH1 0x0 PUSH2 0x2CB0 PUSH2 0x2CAB PUSH2 0x2CA6 DUP5 PUSH2 0x1CF5 JUMP JUMPDEST PUSH2 0x2C8B JUMP JUMPDEST PUSH2 0x1CF5 JUMP JUMPDEST SWAP1 POP SWAP2 SWAP1 POP JUMP JUMPDEST PUSH1 0x0 DUP2 SWAP1 POP SWAP2 SWAP1 POP JUMP JUMPDEST PUSH2 0x2CCA DUP4 PUSH2 0x2C95 JUMP JUMPDEST PUSH2 0x2CDE PUSH2 0x2CD6 DUP3 PUSH2 0x2CB7 JUMP JUMPDEST DUP5 DUP5 SLOAD PUSH2 0x2C39 JUMP JUMPDEST DUP3 SSTORE POP POP POP POP JUMP JUMPDEST PUSH1 0x0 SWAP1 JUMP JUMPDEST PUSH2 0x2CF3 PUSH2 0x2CE6 JUMP JUMPDEST PUSH2 0x2CFE DUP2 DUP5 DUP5 PUSH2 0x2CC1 JUMP JUMPDEST POP POP POP JUMP JUMPDEST JUMPDEST DUP2 DUP2 LT ISZERO PUSH2 0x2D22 JUMPI PUSH2 0x2D17 PUSH1 0x0 DUP3 PUSH2 0x2CEB JUMP JUMPDEST PUSH1 0x1 DUP2 ADD SWAP1 POP PUSH2 0x2D04 JUMP JUMPDEST POP POP JUMP JUMPDEST PUSH1 0x1F DUP3 GT ISZERO PUSH2 0x2D67 JUMPI PUSH2 0x2D38 DUP2 PUSH2 0x2C07 JUMP JUMPDEST PUSH2 0x2D41 DUP5 PUSH2 0x2C1C JUMP JUMPDEST DUP2 ADD PUSH1 0x20 DUP6 LT ISZERO PUSH2 0x2D50 JUMPI DUP2 SWAP1 POP JUMPDEST PUSH2 0x2D64 PUSH2 0x2D5C DUP6 PUSH2 0x2C1C JUMP JUMPDEST DUP4 ADD DUP3 PUSH2 0x2D03 JUMP JUMPDEST POP POP JUMPDEST POP POP POP JUMP JUMPDEST PUSH1 0x0 DUP3 DUP3 SHR SWAP1 POP SWAP3 SWAP2 POP POP JUMP JUMPDEST PUSH1 0x0 PUSH2 0x2D8A PUSH1 0x0 NOT DUP5 PUSH1 0x8 MUL PUSH2 0x2D6C JUMP JUMPDEST NOT DUP1 DUP4 AND SWAP2 POP POP SWAP3 SWAP2 POP POP JUMP JUMPDEST PUSH1 0x0 PUSH2 0x2DA3 DUP4 DUP4 PUSH2 0x2D79 JUMP JUMPDEST SWAP2 POP DUP3 PUSH1 0x2 MUL DUP3 OR SWAP1 POP SWAP3 SWAP2 POP POP JUMP JUMPDEST PUSH2 0x2DBC DUP3 PUSH2 0x1C43 JUMP JUMPDEST PUSH8 0xFFFFFFFFFFFFFFFF DUP2 GT ISZERO PUSH2 0x2DD5 JUMPI PUSH2 0x2DD4 PUSH2 0x1F40 JUMP JUMPDEST JUMPDEST PUSH2 0x2DDF DUP3 SLOAD PUSH2 0x226D JUMP JUMPDEST PUSH2 0x2DEA DUP3 DUP3 DUP6 PUSH2 0x2D26 JUMP JUMPDEST PUSH1 0x0 PUSH1 0x20 SWAP1 POP PUSH1 0x1F DUP4 GT PUSH1 0x1 DUP2 EQ PUSH2 0x2E1D JUMPI PUSH1 0x0 DUP5 ISZERO PUSH2 0x2E0B JUMPI DUP3 DUP8 ADD MLOAD SWAP1 POP JUMPDEST PUSH2 0x2E15 DUP6 DUP3 PUSH2 0x2D97 JUMP JUMPDEST DUP7 SSTORE POP PUSH2 0x2E7D JUMP JUMPDEST PUSH1 0x1F NOT DUP5 AND PUSH2 0x2E2B DUP7 PUSH2 0x2C07 JUMP JUMPDEST PUSH1 0x0 JUMPDEST DUP3 DUP2 LT ISZERO PUSH2 0x2E53 JUMPI DUP5 DUP10 ADD MLOAD DUP3 SSTORE PUSH1 0x1 DUP3 ADD SWAP2 POP PUSH1 0x20 DUP6 ADD SWAP5 POP PUSH1 0x20 DUP2 ADD SWAP1 POP PUSH2 0x2E2E JUMP JUMPDEST DUP7 DUP4 LT ISZERO PUSH2 0x2E70 JUMPI DUP5 DUP10 ADD MLOAD PUSH2 0x2E6C PUSH1 0x1F DUP10 AND DUP3 PUSH2 0x2D79 JUMP JUMPDEST DUP4 SSTORE POP JUMPDEST PUSH1 0x1 PUSH1 0x2 DUP9 MUL ADD DUP9 SSTORE POP POP POP JUMPDEST POP POP POP POP POP POP JUMP JUMPDEST PUSH1 0x0 DUP2 MLOAD SWAP1 POP SWAP2 SWAP1 POP JUMP JUMPDEST PUSH1 0x0 DUP3 DUP3 MSTORE PUSH1 0x20 DUP3 ADD SWAP1 POP SWAP3 SWAP2 POP POP JUMP JUMPDEST PUSH1 0x0 PUSH2 0x2EAC DUP3 PUSH2 0x2E85 JUMP JUMPDEST PUSH2 0x2EB6 DUP2 DUP6 PUSH2 0x2E90 JUMP JUMPDEST SWAP4 POP PUSH2 0x2EC6 DUP2 DUP6 PUSH1 0x20 DUP7 ADD PUSH2 0x1C5F JUMP JUMPDEST PUSH2 0x2ECF DUP2 PUSH2 0x1C89 JUMP JUMPDEST DUP5 ADD SWAP2 POP POP SWAP3 SWAP2 POP POP JUMP JUMPDEST PUSH1 0x0 PUSH1 0x80 DUP3 ADD SWAP1 POP PUSH2 0x2EEF PUSH1 0x0 DUP4 ADD DUP8 PUSH2 0x1D8A JUMP JUMPDEST PUSH2 0x2EFC PUSH1 0x20 DUP4 ADD DUP7 PUSH2 0x1D8A JUMP JUMPDEST PUSH2 0x2F09 PUSH1 0x40 DUP4 ADD DUP6 PUSH2 0x1EA0 JUMP JUMPDEST DUP2 DUP2 SUB PUSH1 0x60 DUP4 ADD MSTORE PUSH2 0x2F1B DUP2 DUP5 PUSH2 0x2EA1 JUMP JUMPDEST SWAP1 POP SWAP6 SWAP5 POP POP POP POP POP JUMP JUMPDEST PUSH1 0x0 DUP2 MLOAD SWAP1 POP PUSH2 0x2F35 DUP2 PUSH2 0x1BB4 JUMP JUMPDEST SWAP3 SWAP2 POP POP JUMP JUMPDEST PUSH1 0x0 PUSH1 0x20 DUP3 DUP5 SUB SLT ISZERO PUSH2 0x2F51 JUMPI PUSH2 0x2F50 PUSH2 0x1B7E JUMP JUMPDEST JUMPDEST PUSH1 0x0 PUSH2 0x2F5F DUP5 DUP3 DUP6 ADD PUSH2 0x2F26 JUMP JUMPDEST SWAP2 POP POP SWAP3 SWAP2 POP POP JUMP JUMPDEST PUSH32 0x4552433732314D657461646174613A2055524920717565727920666F72206E6F PUSH1 0x0 DUP3 ADD MSTORE PUSH32 0x6E6578697374656E7420746F6B656E0000000000000000000000000000000000 PUSH1 0x20 DUP3 ADD MSTORE POP JUMP JUMPDEST PUSH1 0x0 PUSH2 0x2FC4 PUSH1 0x2F DUP4 PUSH2 0x1C4E JUMP JUMPDEST SWAP2 POP PUSH2 0x2FCF DUP3 PUSH2 0x2F68 JUMP JUMPDEST PUSH1 0x40 DUP3 ADD SWAP1 POP SWAP2 SWAP1 POP JUMP JUMPDEST PUSH1 0x0 PUSH1 0x20 DUP3 ADD SWAP1 POP DUP2 DUP2 SUB PUSH1 0x0 DUP4 ADD MSTORE PUSH2 0x2FF3 DUP2 PUSH2 0x2FB7 JUMP JUMPDEST SWAP1 POP SWAP2 SWAP1 POP JUMP JUMPDEST PUSH1 0x0 PUSH2 0x3005 DUP3 PUSH2 0x1CF5 JUMP JUMPDEST SWAP2 POP PUSH32 0xFFFFFFFFFFFFFFFFFFFFFFFFFFFFFFFFFFFFFFFFFFFFFFFFFFFFFFFFFFFFFFFF DUP3 SUB PUSH2 0x3037 JUMPI PUSH2 0x3036 PUSH2 0x28EE JUMP JUMPDEST JUMPDEST PUSH1 0x1 DUP3 ADD SWAP1 POP SWAP2 SWAP1 POP JUMP JUMPDEST PUSH32 0x4E487B7100000000000000000000000000000000000000000000000000000000 PUSH1 0x0 MSTORE PUSH1 0x12 PUSH1 0x4 MSTORE PUSH1 0x24 PUSH1 0x0 REVERT JUMPDEST PUSH1 0x0 PUSH2 0x307C DUP3 PUSH2 0x1CF5 JUMP JUMPDEST SWAP2 POP PUSH2 0x3087 DUP4 PUSH2 0x1CF5 JUMP JUMPDEST SWAP3 POP DUP3 PUSH2 0x3097 JUMPI PUSH2 0x3096 PUSH2 0x3042 JUMP JUMPDEST JUMPDEST DUP3 DUP3 DIV SWAP1 POP SWAP3 SWAP2 POP POP JUMP JUMPDEST PUSH1 0x0 PUSH2 0x30AD DUP3 PUSH2 0x1CF5 JUMP JUMPDEST SWAP2 POP PUSH2 0x30B8 DUP4 PUSH2 0x1CF5 JUMP JUMPDEST SWAP3 POP DUP3 PUSH2 0x30C8 JUMPI PUSH2 0x30C7 PUSH2 0x3042 JUMP JUMPDEST JUMPDEST DUP3 DUP3 MOD SWAP1 POP SWAP3 SWAP2 POP POP JUMP JUMPDEST PUSH32 0x4E487B7100000000000000000000000000000000000000000000000000000000 PUSH1 0x0 MSTORE PUSH1 0x32 PUSH1 0x4 MSTORE PUSH1 0x24 PUSH1 0x0 REVERT JUMPDEST PUSH32 0x4552433732313A206D696E7420746F20746865207A65726F2061646472657373 PUSH1 0x0 DUP3 ADD MSTORE POP JUMP JUMPDEST PUSH1 0x0 PUSH2 0x3138 PUSH1 0x20 DUP4 PUSH2 0x1C4E JUMP JUMPDEST SWAP2 POP PUSH2 0x3143 DUP3 PUSH2 0x3102 JUMP JUMPDEST PUSH1 0x20 DUP3 ADD SWAP1 POP SWAP2 SWAP1 POP JUMP JUMPDEST PUSH1 0x0 PUSH1 0x20 DUP3 ADD SWAP1 POP DUP2 DUP2 SUB PUSH1 0x0 DUP4 ADD MSTORE PUSH2 0x3167 DUP2 PUSH2 0x312B JUMP JUMPDEST SWAP1 POP SWAP2 SWAP1 POP JUMP JUMPDEST PUSH32 0x4552433732313A20746F6B656E20616C7265616479206D696E74656400000000 PUSH1 0x0 DUP3 ADD MSTORE POP JUMP JUMPDEST PUSH1 0x0 PUSH2 0x31A4 PUSH1 0x1C DUP4 PUSH2 0x1C4E JUMP JUMPDEST SWAP2 POP PUSH2 0x31AF DUP3 PUSH2 0x316E JUMP JUMPDEST PUSH1 0x20 DUP3 ADD SWAP1 POP SWAP2 SWAP1 POP JUMP JUMPDEST PUSH1 0x0 PUSH1 0x20 DUP3 ADD SWAP1 POP DUP2 DUP2 SUB PUSH1 0x0 DUP4 ADD MSTORE PUSH2 0x31D3 DUP2 PUSH2 0x3197 JUMP JUMPDEST SWAP1 POP SWAP2 SWAP1 POP JUMP INVALID LOG2 PUSH5 0x6970667358 0x22 SLT KECCAK256 SAR EXTCODEHASH 0x2E RETURN 0xE5 0xDC 0x49 PUSH24 0xA5D98F4CECB4FE9276873F99AF4EBD4CC4C8B16C0C3EA00C PUSH5 0x736F6C6343 STOP ADDMOD GT STOP CALLER "
		},
		"gasEstimates": {
			"creation": {
				"codeDepositCost": "2563200",
				"executionCost": "infinite",
				"totalCost": "infinite"
			},
			"external": {
				"approve(address,uint256)": "infinite",
				"balanceOf(address)": "2965",
				"getApproved(uint256)": "5228",
				"isApprovedForAll(address,address)": "infinite",
				"mint(address,uint256,string)": "infinite",
				"name()": "infinite",
				"owner()": "2567",
				"ownerOf(uint256)": "3041",
				"renounceOwnership()": "30397",
				"safeTransferFrom(address,address,uint256)": "infinite",
				"safeTransferFrom(address,address,uint256,bytes)": "infinite",
				"setApprovalForAll(address,bool)": "infinite",
				"supportsInterface(bytes4)": "797",
				"symbol()": "infinite",
				"tokenURI(uint256)": "infinite",
				"transferFrom(address,address,uint256)": "infinite",
				"transferOwnership(address)": "30830"
			},
			"internal": {
				"_burn(uint256)": "infinite"
			}
		},
		"methodIdentifiers": {
			"approve(address,uint256)": "095ea7b3",
			"balanceOf(address)": "70a08231",
			"getApproved(uint256)": "081812fc",
			"isApprovedForAll(address,address)": "e985e9c5",
			"mint(address,uint256,string)": "d3fc9864",
			"name()": "06fdde03",
			"owner()": "8da5cb5b",
			"ownerOf(uint256)": "6352211e",
			"renounceOwnership()": "715018a6",
			"safeTransferFrom(address,address,uint256)": "42842e0e",
			"safeTransferFrom(address,address,uint256,bytes)": "b88d4fde",
			"setApprovalForAll(address,bool)": "a22cb465",
			"supportsInterface(bytes4)": "01ffc9a7",
			"symbol()": "95d89b41",
			"tokenURI(uint256)": "c87b56dd",
			"transferFrom(address,address,uint256)": "23b872dd",
			"transferOwnership(address)": "f2fde38b"
		}
	},
	"abi": [
		{
			"inputs": [
				{
					"internalType": "string",
					"name": "_name",
					"type": "string"
				},
				{
					"internalType": "string",
					"name": "_symbol",
					"type": "string"
				}
			],
			"stateMutability": "nonpayable",
			"type": "constructor"
		},
		{
			"anonymous": false,
			"inputs": [
				{
					"indexed": true,
					"internalType": "address",
					"name": "owner",
					"type": "address"
				},
				{
					"indexed": true,
					"internalType": "address",
					"name": "approved",
					"type": "address"
				},
				{
					"indexed": true,
					"internalType": "uint256",
					"name": "tokenId",
					"type": "uint256"
				}
			],
			"name": "Approval",
			"type": "event"
		},
		{
			"anonymous": false,
			"inputs": [
				{
					"indexed": true,
					"internalType": "address",
					"name": "owner",
					"type": "address"
				},
				{
					"indexed": true,
					"internalType": "address",
					"name": "operator",
					"type": "address"
				},
				{
					"indexed": false,
					"internalType": "bool",
					"name": "approved",
					"type": "bool"
				}
			],
			"name": "ApprovalForAll",
			"type": "event"
		},
		{
			"anonymous": false,
			"inputs": [
				{
					"indexed": true,
					"internalType": "address",
					"name": "collection",
					"type": "address"
				},
				{
					"indexed": false,
					"internalType": "string",
					"name": "name",
					"type": "string"
				},
				{
					"indexed": false,
					"internalType": "string",
					"name": "symbol",
					"type": "string"
				}
			],
			"name": "CollectionCreated",
			"type": "event"
		},
		{
			"anonymous": false,
			"inputs": [
				{
					"indexed": true,
					"internalType": "address",
					"name": "previousOwner",
					"type": "address"
				},
				{
					"indexed": true,
					"internalType": "address",
					"name": "newOwner",
					"type": "address"
				}
			],
			"name": "OwnershipTransferred",
			"type": "event"
		},
		{
			"anonymous": false,
			"inputs": [
				{
					"indexed": true,
					"internalType": "address",
					"name": "collection",
					"type": "address"
				},
				{
					"indexed": true,
					"internalType": "address",
					"name": "recipient",
					"type": "address"
				},
				{
					"indexed": false,
					"internalType": "uint256",
					"name": "tokenId",
					"type": "uint256"
				},
				{
					"indexed": false,
					"internalType": "string",
					"name": "tokenURI",
					"type": "string"
				}
			],
			"name": "TokenMinted",
			"type": "event"
		},
		{
			"anonymous": false,
			"inputs": [
				{
					"indexed": true,
					"internalType": "address",
					"name": "from",
					"type": "address"
				},
				{
					"indexed": true,
					"internalType": "address",
					"name": "to",
					"type": "address"
				},
				{
					"indexed": true,
					"internalType": "uint256",
					"name": "tokenId",
					"type": "uint256"
				}
			],
			"name": "Transfer",
			"type": "event"
		},
		{
			"inputs": [
				{
					"internalType": "address",
					"name": "to",
					"type": "address"
				},
				{
					"internalType": "uint256",
					"name": "tokenId",
					"type": "uint256"
				}
			],
			"name": "approve",
			"outputs": [],
			"stateMutability": "nonpayable",
			"type": "function"
		},
		{
			"inputs": [
				{
					"internalType": "address",
					"name": "owner",
					"type": "address"
				}
			],
			"name": "balanceOf",
			"outputs": [
				{
					"internalType": "uint256",
					"name": "",
					"type": "uint256"
				}
			],
			"stateMutability": "view",
			"type": "function"
		},
		{
			"inputs": [
				{
					"internalType": "uint256",
					"name": "tokenId",
					"type": "uint256"
				}
			],
			"name": "getApproved",
			"outputs": [
				{
					"internalType": "address",
					"name": "",
					"type": "address"
				}
			],
			"stateMutability": "view",
			"type": "function"
		},
		{
			"inputs": [
				{
					"internalType": "address",
					"name": "owner",
					"type": "address"
				},
				{
					"internalType": "address",
					"name": "operator",
					"type": "address"
				}
			],
			"name": "isApprovedForAll",
			"outputs": [
				{
					"internalType": "bool",
					"name": "",
					"type": "bool"
				}
			],
			"stateMutability": "view",
			"type": "function"
		},
		{
			"inputs": [
				{
					"internalType": "address",
					"name": "to",
					"type": "address"
				},
				{
					"internalType": "uint256",
					"name": "tokenId",
					"type": "uint256"
				},
				{
					"internalType": "string",
					"name": "tokenURI",
					"type": "string"
				}
			],
			"name": "mint",
			"outputs": [],
			"stateMutability": "nonpayable",
			"type": "function"
		},
		{
			"inputs": [],
			"name": "name",
			"outputs": [
				{
					"internalType": "string",
					"name": "",
					"type": "string"
				}
			],
			"stateMutability": "view",
			"type": "function"
		},
		{
			"inputs": [],
			"name": "owner",
			"outputs": [
				{
					"internalType": "address",
					"name": "",
					"type": "address"
				}
			],
			"stateMutability": "view",
			"type": "function"
		},
		{
			"inputs": [
				{
					"internalType": "uint256",
					"name": "tokenId",
					"type": "uint256"
				}
			],
			"name": "ownerOf",
			"outputs": [
				{
					"internalType": "address",
					"name": "",
					"type": "address"
				}
			],
			"stateMutability": "view",
			"type": "function"
		},
		{
			"inputs": [],
			"name": "renounceOwnership",
			"outputs": [],
			"stateMutability": "nonpayable",
			"type": "function"
		},
		{
			"inputs": [
				{
					"internalType": "address",
					"name": "from",
					"type": "address"
				},
				{
					"internalType": "address",
					"name": "to",
					"type": "address"
				},
				{
					"internalType": "uint256",
					"name": "tokenId",
					"type": "uint256"
				}
			],
			"name": "safeTransferFrom",
			"outputs": [],
			"stateMutability": "nonpayable",
			"type": "function"
		},
		{
			"inputs": [
				{
					"internalType": "address",
					"name": "from",
					"type": "address"
				},
				{
					"internalType": "address",
					"name": "to",
					"type": "address"
				},
				{
					"internalType": "uint256",
					"name": "tokenId",
					"type": "uint256"
				},
				{
					"internalType": "bytes",
					"name": "_data",
					"type": "bytes"
				}
			],
			"name": "safeTransferFrom",
			"outputs": [],
			"stateMutability": "nonpayable",
			"type": "function"
		},
		{
			"inputs": [
				{
					"internalType": "address",
					"name": "operator",
					"type": "address"
				},
				{
					"internalType": "bool",
					"name": "approved",
					"type": "bool"
				}
			],
			"name": "setApprovalForAll",
			"outputs": [],
			"stateMutability": "nonpayable",
			"type": "function"
		},
		{
			"inputs": [
				{
					"internalType": "bytes4",
					"name": "interfaceId",
					"type": "bytes4"
				}
			],
			"name": "supportsInterface",
			"outputs": [
				{
					"internalType": "bool",
					"name": "",
					"type": "bool"
				}
			],
			"stateMutability": "view",
			"type": "function"
		},
		{
			"inputs": [],
			"name": "symbol",
			"outputs": [
				{
					"internalType": "string",
					"name": "",
					"type": "string"
				}
			],
			"stateMutability": "view",
			"type": "function"
		},
		{
			"inputs": [
				{
					"internalType": "uint256",
					"name": "tokenId",
					"type": "uint256"
				}
			],
			"name": "tokenURI",
			"outputs": [
				{
					"internalType": "string",
					"name": "",
					"type": "string"
				}
			],
			"stateMutability": "view",
			"type": "function"
		},
		{
			"inputs": [
				{
					"internalType": "address",
					"name": "from",
					"type": "address"
				},
				{
					"internalType": "address",
					"name": "to",
					"type": "address"
				},
				{
					"internalType": "uint256",
					"name": "tokenId",
					"type": "uint256"
				}
			],
			"name": "transferFrom",
			"outputs": [],
			"stateMutability": "nonpayable",
			"type": "function"
		},
		{
			"inputs": [
				{
					"internalType": "address",
					"name": "newOwner",
					"type": "address"
				}
			],
			"name": "transferOwnership",
			"outputs": [],
			"stateMutability": "nonpayable",
			"type": "function"
		}
	]
}